{
  "contractName": "BalancerPoolToken",
  "abi": [
    {
      "inputs": [
        {
          "internalType": "string",
          "name": "tokenName",
          "type": "string"
        },
        {
          "internalType": "string",
          "name": "tokenSymbol",
          "type": "string"
        }
      ],
      "stateMutability": "nonpayable",
      "type": "constructor"
    },
    {
      "anonymous": false,
      "inputs": [
        {
          "indexed": true,
          "internalType": "address",
          "name": "owner",
          "type": "address"
        },
        {
          "indexed": true,
          "internalType": "address",
          "name": "spender",
          "type": "address"
        },
        {
          "indexed": false,
          "internalType": "uint256",
          "name": "value",
          "type": "uint256"
        }
      ],
      "name": "Approval",
      "type": "event"
    },
    {
      "anonymous": false,
      "inputs": [
        {
          "indexed": true,
          "internalType": "address",
          "name": "from",
          "type": "address"
        },
        {
          "indexed": true,
          "internalType": "address",
          "name": "to",
          "type": "address"
        },
        {
          "indexed": false,
          "internalType": "uint256",
          "name": "value",
          "type": "uint256"
        }
      ],
      "name": "Transfer",
      "type": "event"
    },
    {
      "inputs": [
        {
          "internalType": "address",
          "name": "owner",
          "type": "address"
        },
        {
          "internalType": "address",
          "name": "spender",
          "type": "address"
        }
      ],
      "name": "allowance",
      "outputs": [
        {
          "internalType": "uint256",
          "name": "",
          "type": "uint256"
        }
      ],
      "stateMutability": "view",
      "type": "function",
      "constant": true
    },
    {
      "inputs": [
        {
          "internalType": "address",
          "name": "account",
          "type": "address"
        }
      ],
      "name": "balanceOf",
      "outputs": [
        {
          "internalType": "uint256",
          "name": "",
          "type": "uint256"
        }
      ],
      "stateMutability": "view",
      "type": "function",
      "constant": true
    },
    {
      "inputs": [
        {
          "internalType": "address",
          "name": "spender",
          "type": "address"
        },
        {
          "internalType": "uint256",
          "name": "amount",
          "type": "uint256"
        }
      ],
      "name": "approve",
      "outputs": [
        {
          "internalType": "bool",
          "name": "",
          "type": "bool"
        }
      ],
      "stateMutability": "nonpayable",
      "type": "function"
    },
    {
      "inputs": [
        {
          "internalType": "address",
          "name": "spender",
          "type": "address"
        },
        {
          "internalType": "uint256",
          "name": "amount",
          "type": "uint256"
        }
      ],
      "name": "increaseApproval",
      "outputs": [
        {
          "internalType": "bool",
          "name": "",
          "type": "bool"
        }
      ],
      "stateMutability": "nonpayable",
      "type": "function"
    },
    {
      "inputs": [
        {
          "internalType": "address",
          "name": "spender",
          "type": "address"
        },
        {
          "internalType": "uint256",
          "name": "amount",
          "type": "uint256"
        }
      ],
      "name": "decreaseApproval",
      "outputs": [
        {
          "internalType": "bool",
          "name": "",
          "type": "bool"
        }
      ],
      "stateMutability": "nonpayable",
      "type": "function"
    },
    {
      "inputs": [
        {
          "internalType": "address",
          "name": "recipient",
          "type": "address"
        },
        {
          "internalType": "uint256",
          "name": "amount",
          "type": "uint256"
        }
      ],
      "name": "transfer",
      "outputs": [
        {
          "internalType": "bool",
          "name": "",
          "type": "bool"
        }
      ],
      "stateMutability": "nonpayable",
      "type": "function"
    },
    {
      "inputs": [
        {
          "internalType": "address",
          "name": "sender",
          "type": "address"
        },
        {
          "internalType": "address",
          "name": "recipient",
          "type": "address"
        },
        {
          "internalType": "uint256",
          "name": "amount",
          "type": "uint256"
        }
      ],
      "name": "transferFrom",
      "outputs": [
        {
          "internalType": "bool",
          "name": "",
          "type": "bool"
        }
      ],
      "stateMutability": "nonpayable",
      "type": "function"
    },
    {
      "inputs": [
        {
          "internalType": "address",
          "name": "owner",
          "type": "address"
        },
        {
          "internalType": "address",
          "name": "spender",
          "type": "address"
        },
        {
          "internalType": "uint256",
          "name": "value",
          "type": "uint256"
        },
        {
          "internalType": "uint256",
          "name": "deadline",
          "type": "uint256"
        },
        {
          "internalType": "uint8",
          "name": "v",
          "type": "uint8"
        },
        {
          "internalType": "bytes32",
          "name": "r",
          "type": "bytes32"
        },
        {
          "internalType": "bytes32",
          "name": "s",
          "type": "bytes32"
        }
      ],
      "name": "permit",
      "outputs": [],
      "stateMutability": "nonpayable",
      "type": "function"
    },
    {
      "inputs": [],
      "name": "name",
      "outputs": [
        {
          "internalType": "string",
          "name": "",
          "type": "string"
        }
      ],
      "stateMutability": "view",
      "type": "function",
      "constant": true
    },
    {
      "inputs": [],
      "name": "symbol",
      "outputs": [
        {
          "internalType": "string",
          "name": "",
          "type": "string"
        }
      ],
      "stateMutability": "view",
      "type": "function",
      "constant": true
    },
    {
      "inputs": [],
      "name": "decimals",
      "outputs": [
        {
          "internalType": "uint8",
          "name": "",
          "type": "uint8"
        }
      ],
      "stateMutability": "pure",
      "type": "function",
      "constant": true
    },
    {
      "inputs": [],
      "name": "totalSupply",
      "outputs": [
        {
          "internalType": "uint256",
          "name": "",
          "type": "uint256"
        }
      ],
      "stateMutability": "view",
      "type": "function",
      "constant": true
    },
    {
      "inputs": [
        {
          "internalType": "address",
          "name": "owner",
          "type": "address"
        }
      ],
      "name": "nonces",
      "outputs": [
        {
          "internalType": "uint256",
          "name": "",
          "type": "uint256"
        }
      ],
      "stateMutability": "view",
      "type": "function",
      "constant": true
    },
    {
      "inputs": [],
      "name": "DOMAIN_SEPARATOR",
      "outputs": [
        {
          "internalType": "bytes32",
          "name": "",
          "type": "bytes32"
        }
      ],
      "stateMutability": "view",
      "type": "function",
      "constant": true
    }
  ],
  "bytecode": "0x6101006040527f6e71edae12b1b97f4d1f60370fef10105fa2faae0126114a169c64845d6126c960e0523480156200003657600080fd5b5060405162000da738038062000da7833981810160405260408110156200005c57600080fd5b81019080805160405193929190846401000000008211156200007d57600080fd5b9083019060208201858111156200009357600080fd5b8251640100000000811182820188101715620000ae57600080fd5b82525081516020918201929091019080838360005b83811015620000dd578181015183820152602001620000c3565b50505050905090810190601f1680156200010b5780820380516001836020036101000a031916815260200191505b50604052602001805160405193929190846401000000008211156200012f57600080fd5b9083019060208201858111156200014557600080fd5b82516401000000008111828201881017156200016057600080fd5b82525081516020918201929091019080838360005b838110156200018f57818101518382015260200162000175565b50505050905090810190601f168015620001bd5780820380516001836020036101000a031916815260200191505b506040818101905260018152603160f81b602080830191825287519088019081206080529151902060a0527f8b73c3c69bb8fe3d512ecc4cf759cc79239f7b179b0ffacaa9a75d522b39400f60c05285516200022194506003935090915062000240565b5080516200023790600490602084019062000240565b505050620002dc565b828054600181600116156101000203166002900490600052602060002090601f016020900481019282601f106200028357805160ff1916838001178555620002b3565b82800160010185558215620002b3579182015b82811115620002b357825182559160200191906001019062000296565b50620002c1929150620002c5565b5090565b5b80821115620002c15760008155600101620002c6565b60805160a05160c05160e051610a9562000312600039806105ef5250806108d35250806109155250806108f45250610a956000f3fe608060405234801561001057600080fd5b50600436106100ea5760003560e01c806370a082311161008c578063a9059cbb11610066578063a9059cbb146102a2578063d505accf146102ce578063d73dd62314610321578063dd62ed3e1461034d576100ea565b806370a082311461024e5780637ecebe001461027457806395d89b411461029a576100ea565b806323b872dd116100c857806323b872dd146101c6578063313ce567146101fc5780633644e5151461021a5780636618846314610222576100ea565b806306fdde03146100ef578063095ea7b31461016c57806318160ddd146101ac575b600080fd5b6100f761037b565b6040805160208082528351818301528351919283929083019185019080838360005b83811015610131578181015183820152602001610119565b50505050905090810190601f16801561015e5780820380516001836020036101000a031916815260200191505b509250505060405180910390f35b6101986004803603604081101561018257600080fd5b506001600160a01b038135169060200135610411565b604080519115158252519081900360200190f35b6101b4610427565b60408051918252519081900360200190f35b610198600480360360608110156101dc57600080fd5b506001600160a01b0381358116916020810135909116906040013561042d565b6102046104ae565b6040805160ff9092168252519081900360200190f35b6101b46104b3565b6101986004803603604081101561023857600080fd5b506001600160a01b0381351690602001356104c2565b6101b46004803603602081101561026457600080fd5b50356001600160a01b031661051c565b6101b46004803603602081101561028a57600080fd5b50356001600160a01b0316610537565b6100f7610552565b610198600480360360408110156102b857600080fd5b506001600160a01b0381351690602001356105b3565b61031f600480360360e08110156102e457600080fd5b506001600160a01b03813581169160208101359091169060408101359060608101359060ff6080820135169060a08101359060c001356105c0565b005b6101986004803603604081101561033757600080fd5b506001600160a01b038135169060200135610730565b6101b46004803603604081101561036357600080fd5b506001600160a01b0381358116916020013516610766565b60038054604080516020601f60026000196101006001881615020190951694909404938401819004810282018101909252828152606093909290918301828280156104075780601f106103dc57610100808354040283529160200191610407565b820191906000526020600020905b8154815290600101906020018083116103ea57829003601f168201915b5050505050905090565b600061041e338484610791565b50600192915050565b60025490565b6001600160a01b0383166000818152600160209081526040808320338085529252822054919261046b9114806104635750838210155b6101976107f3565b610476858585610805565b336001600160a01b0386161480159061049157506000198114155b156104a3576104a38533858403610791565b506001949350505050565b601290565b60006104bd6108cf565b905090565b3360009081526001602090815260408083206001600160a01b03861684529091528120548083106104fe576104f933856000610791565b610512565b610512338561050d848761098d565b610791565b5060019392505050565b6001600160a01b031660009081526020819052604090205490565b6001600160a01b031660009081526005602052604090205490565b60048054604080516020601f60026000196101006001881615020190951694909404938401819004810282018101909252828152606093909290918301828280156104075780601f106103dc57610100808354040283529160200191610407565b600061041e338484610805565b6105ce8442111560d16107f3565b6001600160a01b0380881660008181526005602090815260408083205481517f00000000000000000000000000000000000000000000000000000000000000008185015280830195909552948b166060850152608084018a905260a0840185905260c08085018a90528151808603909101815260e0909401905282519201919091209061065a826109a3565b9050600060018288888860405160008152602001604052604051808581526020018460ff1681526020018381526020018281526020019450505050506020604051602081039080840390855afa1580156106b8573d6000803e3d6000fd5b5050604051601f19015191506106fa90506001600160a01b038216158015906106f257508b6001600160a01b0316826001600160a01b0316145b6101f86107f3565b6001600160a01b038b1660009081526005602052604090206001850190556107238b8b8b610791565b5050505050505050505050565b3360008181526001602090815260408083206001600160a01b0387168452909152812054909161041e91859061050d90866109ef565b6001600160a01b03918216600090815260016020908152604080832093909416825291909152205490565b6001600160a01b03808416600081815260016020908152604080832094871680845294825291829020859055815185815291517f8c5be1e5ebec7d5bd14f71427d1e84f3dd0314c0f7b2291e5b200ac8c7c3b9259281900390910190a3505050565b816108015761080181610a08565b5050565b6001600160a01b03831660009081526020819052604090205461082d828210156101966107f3565b6108446001600160a01b03841615156101996107f3565b6001600160a01b0380851660009081526020819052604080822085850390559185168152205461087490836109ef565b6001600160a01b038085166000818152602081815260409182902094909455805186815290519193928816927fddf252ad1be2c89b69c2b068fc378daa952ba7f163c4a11628f55a4df523b3ef92918290030190a350505050565b60007f00000000000000000000000000000000000000000000000000000000000000007f00000000000000000000000000000000000000000000000000000000000000007f000000000000000000000000000000000000000000000000000000000000000061093c610a5b565b3060405160200180868152602001858152602001848152602001838152602001826001600160a01b031681526020019550505050505060405160208183030381529060405280519060200120905090565b600061099d8383111560016107f3565b50900390565b60006109ad6108cf565b82604051602001808061190160f01b81525060020183815260200182815260200192505050604051602081830303815290604052805190602001209050919050565b6000828201610a0184821015836107f3565b9392505050565b62461bcd60e51b6000908152602060045260076024526642414c23000030600a808404818106603090810160081b95839006959095019082900491820690940160101b939093010160c81b604452606490fd5b469056fea2646970667358221220691f3470b6c12eaa9f7256557f2fb32e018630d858cbd9c397e113832600258064736f6c63430007010033",
  "immutableReferences": {
    "61": [
      {
        "length": 32,
        "start": 1519
      }
    ],
    "5826": [
      {
        "length": 32,
        "start": 2292
      }
    ],
    "5828": [
      {
        "length": 32,
        "start": 2325
      }
    ],
    "5830": [
      {
        "length": 32,
        "start": 2259
      }
    ]
  },
  "source": "// SPDX-License-Identifier: GPL-3.0-or-later\n// This program is free software: you can redistribute it and/or modify\n// it under the terms of the GNU General Public License as published by\n// the Free Software Foundation, either version 3 of the License, or\n// (at your option) any later version.\n\n// This program is distributed in the hope that it will be useful,\n// but WITHOUT ANY WARRANTY; without even the implied warranty of\n// MERCHANTABILITY or FITNESS FOR A PARTICULAR PURPOSE.  See the\n// GNU General Public License for more details.\n\n// You should have received a copy of the GNU General Public License\n// along with this program.  If not, see <http://www.gnu.org/licenses/>.\n\npragma solidity ^0.7.0;\n\nimport \"@balancer-labs/v2-solidity-utils/contracts/math/Math.sol\";\nimport \"@balancer-labs/v2-solidity-utils/contracts/openzeppelin/IERC20.sol\";\nimport \"@balancer-labs/v2-solidity-utils/contracts/openzeppelin/IERC20Permit.sol\";\nimport \"@balancer-labs/v2-solidity-utils/contracts/openzeppelin/EIP712.sol\";\n\n/**\n * @title Highly opinionated token implementation\n * @author Balancer Labs\n * @dev\n * - Includes functions to increase and decrease allowance as a workaround\n *   for the well-known issue with `approve`:\n *   https://github.com/ethereum/EIPs/issues/20#issuecomment-263524729\n * - Allows for 'infinite allowance', where an allowance of 0xff..ff is not\n *   decreased by calls to transferFrom\n * - Lets a token holder use `transferFrom` to send their own tokens,\n *   without first setting allowance\n * - Emits 'Approval' events whenever allowance is changed by `transferFrom`\n */\ncontract BalancerPoolToken is IERC20, IERC20Permit, EIP712 {\n    using Math for uint256;\n\n    // State variables\n\n    uint8 private constant _DECIMALS = 18;\n\n    mapping(address => uint256) private _balance;\n    mapping(address => mapping(address => uint256)) private _allowance;\n    uint256 private _totalSupply;\n\n    string private _name;\n    string private _symbol;\n\n    mapping(address => uint256) private _nonces;\n\n    // solhint-disable-next-line var-name-mixedcase\n    bytes32 private immutable _PERMIT_TYPE_HASH = keccak256(\n        \"Permit(address owner,address spender,uint256 value,uint256 nonce,uint256 deadline)\"\n    );\n\n    // Function declarations\n\n    constructor(string memory tokenName, string memory tokenSymbol) EIP712(tokenName, \"1\") {\n        _name = tokenName;\n        _symbol = tokenSymbol;\n    }\n\n    // External functions\n\n    function allowance(address owner, address spender) external view override returns (uint256) {\n        return _allowance[owner][spender];\n    }\n\n    function balanceOf(address account) external view override returns (uint256) {\n        return _balance[account];\n    }\n\n    function approve(address spender, uint256 amount) external override returns (bool) {\n        _setAllowance(msg.sender, spender, amount);\n\n        return true;\n    }\n\n    function increaseApproval(address spender, uint256 amount) external returns (bool) {\n        _setAllowance(msg.sender, spender, _allowance[msg.sender][spender].add(amount));\n\n        return true;\n    }\n\n    function decreaseApproval(address spender, uint256 amount) external returns (bool) {\n        uint256 currentAllowance = _allowance[msg.sender][spender];\n\n        if (amount >= currentAllowance) {\n            _setAllowance(msg.sender, spender, 0);\n        } else {\n            _setAllowance(msg.sender, spender, currentAllowance.sub(amount));\n        }\n\n        return true;\n    }\n\n    function transfer(address recipient, uint256 amount) external override returns (bool) {\n        _move(msg.sender, recipient, amount);\n\n        return true;\n    }\n\n    function transferFrom(\n        address sender,\n        address recipient,\n        uint256 amount\n    ) external override returns (bool) {\n        uint256 currentAllowance = _allowance[sender][msg.sender];\n        _require(msg.sender == sender || currentAllowance >= amount, Errors.INSUFFICIENT_ALLOWANCE);\n\n        _move(sender, recipient, amount);\n\n        if (msg.sender != sender && currentAllowance != uint256(-1)) {\n            // Because of the previous require, we know that if msg.sender != sender then currentAllowance >= amount\n            _setAllowance(sender, msg.sender, currentAllowance - amount);\n        }\n\n        return true;\n    }\n\n    function permit(\n        address owner,\n        address spender,\n        uint256 value,\n        uint256 deadline,\n        uint8 v,\n        bytes32 r,\n        bytes32 s\n    ) public virtual override {\n        // solhint-disable-next-line not-rely-on-time\n        _require(block.timestamp <= deadline, Errors.EXPIRED_PERMIT);\n\n        uint256 nonce = _nonces[owner];\n\n        bytes32 structHash = keccak256(abi.encode(_PERMIT_TYPE_HASH, owner, spender, value, nonce, deadline));\n\n        bytes32 hash = _hashTypedDataV4(structHash);\n\n        address signer = ecrecover(hash, v, r, s);\n        _require((signer != address(0)) && (signer == owner), Errors.INVALID_SIGNATURE);\n\n        _nonces[owner] = nonce + 1;\n        _setAllowance(owner, spender, value);\n    }\n\n    // Public functions\n\n    function name() public view returns (string memory) {\n        return _name;\n    }\n\n    function symbol() public view returns (string memory) {\n        return _symbol;\n    }\n\n    function decimals() public pure returns (uint8) {\n        return _DECIMALS;\n    }\n\n    function totalSupply() public view override returns (uint256) {\n        return _totalSupply;\n    }\n\n    function nonces(address owner) external view override returns (uint256) {\n        return _nonces[owner];\n    }\n\n    // solhint-disable-next-line func-name-mixedcase\n    function DOMAIN_SEPARATOR() external view override returns (bytes32) {\n        return _domainSeparatorV4();\n    }\n\n    // Internal functions\n\n    function _mintPoolTokens(address recipient, uint256 amount) internal {\n        _balance[recipient] = _balance[recipient].add(amount);\n        _totalSupply = _totalSupply.add(amount);\n        emit Transfer(address(0), recipient, amount);\n    }\n\n    function _burnPoolTokens(address sender, uint256 amount) internal {\n        uint256 currentBalance = _balance[sender];\n        _require(currentBalance >= amount, Errors.INSUFFICIENT_BALANCE);\n\n        _balance[sender] = currentBalance - amount;\n        _totalSupply = _totalSupply.sub(amount);\n        emit Transfer(sender, address(0), amount);\n    }\n\n    function _move(\n        address sender,\n        address recipient,\n        uint256 amount\n    ) internal {\n        uint256 currentBalance = _balance[sender];\n        _require(currentBalance >= amount, Errors.INSUFFICIENT_BALANCE);\n        // Prohibit transfers to the zero address to avoid confusion with the\n        // Transfer event emitted by `_burnPoolTokens`\n        _require(recipient != address(0), Errors.ERC20_TRANSFER_TO_ZERO_ADDRESS);\n\n        _balance[sender] = currentBalance - amount;\n        _balance[recipient] = _balance[recipient].add(amount);\n\n        emit Transfer(sender, recipient, amount);\n    }\n\n    // Private functions\n\n    function _setAllowance(\n        address owner,\n        address spender,\n        uint256 amount\n    ) private {\n        _allowance[owner][spender] = amount;\n        emit Approval(owner, spender, amount);\n    }\n}\n",
  "sourcePath": "@balancer-labs/v2-pool-utils/contracts/BalancerPoolToken.sol",
  "compiler": {
    "name": "solc",
    "version": "0.7.1+commit.f4a555be.Emscripten.clang"
  },
  "schemaVersion": "3.4.2",
  "updatedAt": "2021-08-19T23:37:52.248Z",
  "networkType": "ethereum",
  "devdoc": {
    "author": "Balancer Labs",
    "details": "- Includes functions to increase and decrease allowance as a workaround   for the well-known issue with `approve`:   https://github.com/ethereum/EIPs/issues/20#issuecomment-263524729 - Allows for 'infinite allowance', where an allowance of 0xff..ff is not   decreased by calls to transferFrom - Lets a token holder use `transferFrom` to send their own tokens,   without first setting allowance - Emits 'Approval' events whenever allowance is changed by `transferFrom`",
    "kind": "dev",
    "methods": {
      "DOMAIN_SEPARATOR()": {
        "details": "Returns the domain separator used in the encoding of the signature for `permit`, as defined by {EIP712}."
      },
      "allowance(address,address)": {
        "details": "Returns the remaining number of tokens that `spender` will be allowed to spend on behalf of `owner` through {transferFrom}. This is zero by default. This value changes when {approve} or {transferFrom} are called."
      },
      "approve(address,uint256)": {
        "details": "Sets `amount` as the allowance of `spender` over the caller's tokens. Returns a boolean value indicating whether the operation succeeded. IMPORTANT: Beware that changing an allowance with this method brings the risk that someone may use both the old and the new allowance by unfortunate transaction ordering. One possible solution to mitigate this race condition is to first reduce the spender's allowance to 0 and set the desired value afterwards: https://github.com/ethereum/EIPs/issues/20#issuecomment-263524729 Emits an {Approval} event."
      },
      "balanceOf(address)": {
        "details": "Returns the amount of tokens owned by `account`."
      },
      "nonces(address)": {
        "details": "Returns the current nonce for `owner`. This value must be included whenever a signature is generated for {permit}. Every successful call to {permit} increases ``owner``'s nonce by one. This prevents a signature from being used multiple times."
      },
      "permit(address,address,uint256,uint256,uint8,bytes32,bytes32)": {
        "details": "Sets `value` as the allowance of `spender` over `owner`'s tokens, given `owner`'s signed approval. IMPORTANT: The same issues {IERC20-approve} has related to transaction ordering also apply here. Emits an {Approval} event. Requirements: - `spender` cannot be the zero address. - `deadline` must be a timestamp in the future. - `v`, `r` and `s` must be a valid `secp256k1` signature from `owner` over the EIP712-formatted function arguments. - the signature must use ``owner``'s current nonce (see {nonces}). For more information on the signature format, see the https://eips.ethereum.org/EIPS/eip-2612#specification[relevant EIP section]."
      },
      "totalSupply()": {
        "details": "Returns the amount of tokens in existence."
      },
      "transfer(address,uint256)": {
        "details": "Moves `amount` tokens from the caller's account to `recipient`. Returns a boolean value indicating whether the operation succeeded. Emits a {Transfer} event."
      },
      "transferFrom(address,address,uint256)": {
        "details": "Moves `amount` tokens from `sender` to `recipient` using the allowance mechanism. `amount` is then deducted from the caller's allowance. Returns a boolean value indicating whether the operation succeeded. Emits a {Transfer} event."
      }
    },
    "title": "Highly opinionated token implementation",
    "version": 1
  },
  "userdoc": {
    "kind": "user",
    "methods": {},
    "version": 1
  }
}