{
  "contractName": "FactoryWidePauseWindow",
  "abi": [
    {
      "inputs": [],
      "stateMutability": "nonpayable",
      "type": "constructor"
    },
    {
      "inputs": [],
      "name": "getPauseConfiguration",
      "outputs": [
        {
          "internalType": "uint256",
          "name": "pauseWindowDuration",
          "type": "uint256"
        },
        {
          "internalType": "uint256",
          "name": "bufferPeriodDuration",
          "type": "uint256"
        }
      ],
      "stateMutability": "view",
      "type": "function"
    }
  ],
  "bytecode": "0x60a060405234801561001057600080fd5b50426276a7000160805260805160f461003560003980604e52806076525060f46000f3fe6080604052348015600f57600080fd5b506004361060285760003560e01c80632da47c4014602d575b600080fd5b60336048565b604051603f92919060b0565b60405180910390f35b600080427f000000000000000000000000000000000000000000000000000000000000000081101560a257807f000000000000000000000000000000000000000000000000000000000000000003925062278d00915060ab565b60009250600091505b509091565b91825260208201526040019056fea26469706673582212209575a586055d1d8ab541e1a2bd019a04406b7a5394c85deba29c2a7ccbd6b0af64736f6c63430007010033",
  "immutableReferences": {
    "2517": [
      {
        "length": 32,
        "start": 78
      },
      {
        "length": 32,
        "start": 118
      }
    ]
  },
  "source": "// SPDX-License-Identifier: GPL-3.0-or-later\n// This program is free software: you can redistribute it and/or modify\n// it under the terms of the GNU General Public License as published by\n// the Free Software Foundation, either version 3 of the License, or\n// (at your option) any later version.\n\n// This program is distributed in the hope that it will be useful,\n// but WITHOUT ANY WARRANTY; without even the implied warranty of\n// MERCHANTABILITY or FITNESS FOR A PARTICULAR PURPOSE.  See the\n// GNU General Public License for more details.\n\n// You should have received a copy of the GNU General Public License\n// along with this program.  If not, see <http://www.gnu.org/licenses/>.\n\npragma solidity ^0.7.0;\npragma experimental ABIEncoderV2;\n\n/**\n * @dev Utility to create Pool factories for Pools that use the `TemporarilyPausable` contract.\n *\n * By calling `TemporarilyPausable`'s constructor with the result of `getPauseConfiguration`, all Pools created by this\n * factory will share the same Pause Window end time, after which both old and new Pools will not be pausable.\n */\ncontract FactoryWidePauseWindow {\n    // This contract relies on timestamps in a similar way as `TemporarilyPausable` does - the same caveats apply.\n    // solhint-disable not-rely-on-time\n\n    uint256 private constant _INITIAL_PAUSE_WINDOW_DURATION = 90 days;\n    uint256 private constant _BUFFER_PERIOD_DURATION = 30 days;\n\n    // Time when the pause window for all created Pools expires, and the pause window duration of new Pools becomes\n    // zero.\n    uint256 private immutable _poolsPauseWindowEndTime;\n\n    constructor() {\n        _poolsPauseWindowEndTime = block.timestamp + _INITIAL_PAUSE_WINDOW_DURATION;\n    }\n\n    /**\n     * @dev Returns the current `TemporarilyPausable` configuration that will be applied to Pools created by this\n     * factory.\n     *\n     * `pauseWindowDuration` will decrease over time until it reaches zero, at which point both it and\n     * `bufferPeriodDuration` will be zero forever, meaning deployed Pools will not be pausable.\n     */\n    function getPauseConfiguration() public view returns (uint256 pauseWindowDuration, uint256 bufferPeriodDuration) {\n        uint256 currentTime = block.timestamp;\n        if (currentTime < _poolsPauseWindowEndTime) {\n            // The buffer period is always the same since its duration is related to how much time is needed to respond\n            // to a potential emergency. The Pause Window duration however decreases as the end time approaches.\n\n            pauseWindowDuration = _poolsPauseWindowEndTime - currentTime; // No need for checked arithmetic.\n            bufferPeriodDuration = _BUFFER_PERIOD_DURATION;\n        } else {\n            // After the end time, newly created Pools have no Pause Window, nor Buffer Period (since they are not\n            // pausable in the first place).\n\n            pauseWindowDuration = 0;\n            bufferPeriodDuration = 0;\n        }\n    }\n}\n",
  "sourcePath": "@balancer-labs/v2-pool-utils/contracts/factories/FactoryWidePauseWindow.sol",
  "compiler": {
    "name": "solc",
    "version": "0.7.1+commit.f4a555be.Emscripten.clang"
  },
  "schemaVersion": "3.4.2",
  "updatedAt": "2021-08-19T22:46:59.479Z",
  "devdoc": {
    "details": "Utility to create Pool factories for Pools that use the `TemporarilyPausable` contract. By calling `TemporarilyPausable`'s constructor with the result of `getPauseConfiguration`, all Pools created by this factory will share the same Pause Window end time, after which both old and new Pools will not be pausable.",
    "kind": "dev",
    "methods": {
      "getPauseConfiguration()": {
        "details": "Returns the current `TemporarilyPausable` configuration that will be applied to Pools created by this factory. `pauseWindowDuration` will decrease over time until it reaches zero, at which point both it and `bufferPeriodDuration` will be zero forever, meaning deployed Pools will not be pausable."
      }
    },
    "version": 1
  },
  "userdoc": {
    "kind": "user",
    "methods": {},
    "version": 1
  }
}