{
  "contractName": "MockOracle",
  "abi": [
    {
      "inputs": [],
      "stateMutability": "nonpayable",
      "type": "constructor"
    },
    {
      "inputs": [],
      "name": "price",
      "outputs": [
        {
          "internalType": "uint256",
          "name": "",
          "type": "uint256"
        }
      ],
      "stateMutability": "view",
      "type": "function",
      "constant": true
    },
    {
      "inputs": [],
      "name": "ref",
      "outputs": [
        {
          "internalType": "contract MockIStdReference",
          "name": "",
          "type": "address"
        }
      ],
      "stateMutability": "view",
      "type": "function",
      "constant": true
    },
    {
      "inputs": [],
      "name": "getMultiPrices",
      "outputs": [
        {
          "internalType": "uint256[]",
          "name": "",
          "type": "uint256[]"
        }
      ],
      "stateMutability": "pure",
      "type": "function",
      "constant": true
    }
  ],
  "bytecode": "0x608060405234801561001057600080fd5b506103d5806100206000396000f3fe608060405234801561001057600080fd5b50600436106100415760003560e01c806321a78f68146100465780639c1ea71b14610064578063a035b1fe14610079575b600080fd5b61004e61008e565b60405161005b9190610382565b60405180910390f35b61006c61009d565b60405161005b919061033e565b610081610338565b60405161005b9190610396565b6000546001600160a01b031681565b60408051600480825260a08201909252606091829190816020015b60608152602001906001900390816100b85790505090506040518060400160405280600381526020016242544360e81b815250816000815181106100f857fe5b60200260200101819052506040518060400160405280600381526020016244414960e81b8152508160018151811061012c57fe5b60200260200101819052506040518060400160405280600381526020016208aa8960eb1b8152508160028151811061016057fe5b6020026020010181905250604051806040016040528060048152602001635553444360e01b8152508160038151811061019557fe5b602090810291909101015260408051600480825260a08201909252606091816020015b60608152602001906001900390816101b8579050509050604051806040016040528060038152602001621554d160ea1b815250816000815181106101f857fe5b6020026020010181905250604051806040016040528060038152602001621554d160ea1b8152508160018151811061022c57fe5b6020026020010181905250604051806040016040528060038152602001621554d160ea1b8152508160028151811061026057fe5b6020026020010181905250604051806040016040528060038152602001621554d160ea1b8152508160038151811061029457fe5b602090810291909101015260408051600480825260a0820190925260609181602001602082028036833701905050905061a410816000815181106102d457fe5b6020026020010181815250506001816001815181106102ef57fe5b602002602001018181525050610bb88160028151811061030b57fe5b60200260200101818152505060018160038151811061032657fe5b60209081029190910101529250505090565b60015481565b6020808252825182820181905260009190848201906040850190845b818110156103765783518352928401929184019160010161035a565b50909695505050505050565b6001600160a01b0391909116815260200190565b9081526020019056fea2646970667358221220f754ff39bec49d2f32cd53ac35449f9d478e71b66d4be35e34956348b69265ab64736f6c63430007010033",
  "immutableReferences": {},
  "source": "// SPDX-License-Identifier: GPL-3.0-or-later\n// This program is free software: you can redistribute it and/or modify\n// it under the terms of the GNU General Public License as published by\n// the Free Software Foundation, either version 3 of the License, or\n// (at your option) any later version.\n\n// This program is distributed in the hope that it will be useful,\n// but WITHOUT ANY WARRANTY; without even the implied warranty of\n// MERCHANTABILITY or FITNESS FOR A PARTICULAR PURPOSE.  See the\n// GNU General Public License for more details.\n\n// You should have received a copy of the GNU General Public License\n// along with this program.  If not, see <http://www.gnu.org/licenses/>.\npragma solidity ^0.7.1;\npragma experimental ABIEncoderV2;\n\ninterface MockIStdReference {\n    /// A structure returned whenever someone requests for standard reference data.\n    struct ReferenceData {\n        uint256 rate; // base/quote exchange rate, multiplied by 1e18.\n        uint256 lastUpdatedBase; // UNIX epoch of the last time when base price gets updated.\n        uint256 lastUpdatedQuote; // UNIX epoch of the last time when quote price gets updated.\n    }\n\n    /// Returns the price data for the given base/quote pair. Revert if not available.\n    function getReferenceData(string memory _base, string memory _quote)\n        external\n        view\n        returns (ReferenceData memory);\n\n    /// Similar to getReferenceData, but with multiple base/quote pairs at once.\n    function getReferenceDataBulk(string[] memory _bases, string[] memory _quotes)\n        external\n        view\n        returns (ReferenceData[] memory);\n}\ncontract MockOracle {\n\n    MockIStdReference public ref;\n\n    uint256 public price;\n\n    constructor() {\n    \n    }\n\n    function getMultiPrices() external pure returns (uint256[] memory){\n        string[] memory baseSymbols = new string[](4);\n        baseSymbols[0] = \"BTC\";\n        baseSymbols[1] = \"DAI\";\n        baseSymbols[2] = \"ETH\";\n        baseSymbols[3] = \"USDC\";\n\n        string[] memory quoteSymbols = new string[](4);\n        quoteSymbols[0] = \"USD\";\n        quoteSymbols[1] = \"USD\";\n        quoteSymbols[2] = \"USD\";\n        quoteSymbols[3] = \"USD\";\n\n        uint256[] memory prices = new uint256[](4);\n        prices[0] = 42000;\n        prices[1] = 1;\n        prices[2] = 3000;\n        prices[3] = 1;\n\n        return prices;\n    }\n}",
  "sourcePath": "/home/tatsu/Station/CrossAssetPaymentPool/contracts/test/MockOracle.sol",
  "compiler": {
    "name": "solc",
    "version": "0.7.1+commit.f4a555be.Emscripten.clang"
  },
  "schemaVersion": "3.4.2",
  "updatedAt": "2021-08-19T23:37:49.699Z",
  "networkType": "ethereum",
  "devdoc": {
    "kind": "dev",
    "methods": {},
    "version": 1
  },
  "userdoc": {
    "kind": "user",
    "methods": {},
    "version": 1
  }
}