{
  "contractName": "MockStationMath",
  "abi": [
    {
      "inputs": [
        {
          "internalType": "uint256",
          "name": "tokenIndexIn",
          "type": "uint256"
        },
        {
          "internalType": "uint256",
          "name": "tokenIndexOut",
          "type": "uint256"
        },
        {
          "internalType": "uint256",
          "name": "tokenAmountOut",
          "type": "uint256"
        },
        {
          "internalType": "uint256[]",
          "name": "prices",
          "type": "uint256[]"
        }
      ],
      "name": "inGivenOut",
      "outputs": [
        {
          "internalType": "uint256",
          "name": "",
          "type": "uint256"
        }
      ],
      "stateMutability": "pure",
      "type": "function",
      "constant": true
    },
    {
      "inputs": [
        {
          "internalType": "uint256",
          "name": "tokenIndexIn",
          "type": "uint256"
        },
        {
          "internalType": "uint256",
          "name": "tokenIndexOut",
          "type": "uint256"
        },
        {
          "internalType": "uint256",
          "name": "tokenAmountIn",
          "type": "uint256"
        },
        {
          "internalType": "uint256[]",
          "name": "prices",
          "type": "uint256[]"
        }
      ],
      "name": "outGivenIn",
      "outputs": [
        {
          "internalType": "uint256",
          "name": "",
          "type": "uint256"
        }
      ],
      "stateMutability": "pure",
      "type": "function",
      "constant": true
    },
    {
      "inputs": [
        {
          "internalType": "uint256[]",
          "name": "balances",
          "type": "uint256[]"
        },
        {
          "internalType": "uint256[]",
          "name": "amountsIn",
          "type": "uint256[]"
        },
        {
          "internalType": "uint256",
          "name": "totalBPT",
          "type": "uint256"
        },
        {
          "internalType": "uint256[]",
          "name": "prices",
          "type": "uint256[]"
        }
      ],
      "name": "bptOutForAllTokensIn",
      "outputs": [
        {
          "internalType": "uint256",
          "name": "",
          "type": "uint256"
        }
      ],
      "stateMutability": "pure",
      "type": "function",
      "constant": true
    },
    {
      "inputs": [
        {
          "internalType": "uint256[]",
          "name": "balances",
          "type": "uint256[]"
        },
        {
          "internalType": "uint256[]",
          "name": "amountsOut",
          "type": "uint256[]"
        },
        {
          "internalType": "uint256",
          "name": "totalBPT",
          "type": "uint256"
        },
        {
          "internalType": "uint256[]",
          "name": "prices",
          "type": "uint256[]"
        }
      ],
      "name": "bptInForAllTokensOut",
      "outputs": [
        {
          "internalType": "uint256",
          "name": "",
          "type": "uint256"
        },
        {
          "internalType": "uint256[]",
          "name": "",
          "type": "uint256[]"
        }
      ],
      "stateMutability": "pure",
      "type": "function",
      "constant": true
    },
    {
      "inputs": [
        {
          "internalType": "uint256[]",
          "name": "balances",
          "type": "uint256[]"
        },
        {
          "internalType": "uint256",
          "name": "bptAmountIn",
          "type": "uint256"
        },
        {
          "internalType": "uint256",
          "name": "totalBPT",
          "type": "uint256"
        },
        {
          "internalType": "uint256[]",
          "name": "prices",
          "type": "uint256[]"
        }
      ],
      "name": "tokensOutForExactBptIn",
      "outputs": [
        {
          "internalType": "uint256[]",
          "name": "",
          "type": "uint256[]"
        }
      ],
      "stateMutability": "pure",
      "type": "function",
      "constant": true
    },
    {
      "inputs": [
        {
          "internalType": "uint256[]",
          "name": "balances",
          "type": "uint256[]"
        },
        {
          "internalType": "uint256[]",
          "name": "amountsIn",
          "type": "uint256[]"
        },
        {
          "internalType": "uint256[]",
          "name": "amountsOut",
          "type": "uint256[]"
        },
        {
          "internalType": "uint256",
          "name": "amp",
          "type": "uint256"
        },
        {
          "internalType": "uint256[]",
          "name": "prices",
          "type": "uint256[]"
        }
      ],
      "name": "calculateSwapFeeAmount",
      "outputs": [
        {
          "internalType": "uint256",
          "name": "",
          "type": "uint256"
        }
      ],
      "stateMutability": "pure",
      "type": "function",
      "constant": true
    },
    {
      "inputs": [
        {
          "internalType": "uint256[]",
          "name": "feeTotals",
          "type": "uint256[]"
        },
        {
          "internalType": "uint256[]",
          "name": "prices",
          "type": "uint256[]"
        },
        {
          "internalType": "uint256",
          "name": "protocolSwapFeePercentage",
          "type": "uint256"
        }
      ],
      "name": "calcDueTokenProtocolSwapFeeAmount",
      "outputs": [
        {
          "internalType": "uint256[]",
          "name": "",
          "type": "uint256[]"
        }
      ],
      "stateMutability": "pure",
      "type": "function",
      "constant": true
    },
    {
      "inputs": [
        {
          "internalType": "uint256[]",
          "name": "amountsOut",
          "type": "uint256[]"
        },
        {
          "internalType": "uint256",
          "name": "withdrawFeeRate",
          "type": "uint256"
        },
        {
          "internalType": "uint256[]",
          "name": "prices",
          "type": "uint256[]"
        }
      ],
      "name": "calculateWithdrawFee",
      "outputs": [
        {
          "internalType": "uint256[]",
          "name": "",
          "type": "uint256[]"
        }
      ],
      "stateMutability": "pure",
      "type": "function",
      "constant": true
    }
  ],
  "bytecode": "0x608060405234801561001057600080fd5b50611f2e806100206000396000f3fe608060405234801561001057600080fd5b50600436106100885760003560e01c80636b976d071161005b5780636b976d07146106f4578063875935d9146107a8578063a01461ab146109d7578063d117e13014610b0657610088565b80630b13d4751461008d5780633a04e8911461024c5780634ab1e22b146103c75780634b9b1cd4146104ec575b600080fd5b61023a600480360360808110156100a357600080fd5b810190602081018135600160201b8111156100bd57600080fd5b8201836020820111156100cf57600080fd5b803590602001918460208302840111600160201b831117156100f057600080fd5b9190808060200260200160405190810160405280939291908181526020018383602002808284376000920191909152509295949360208101935035915050600160201b81111561013f57600080fd5b82018360208201111561015157600080fd5b803590602001918460208302840111600160201b8311171561017257600080fd5b91908080602002602001604051908101604052809392919081815260200183836020028082843760009201919091525092958435959094909350604081019250602001359050600160201b8111156101c957600080fd5b8201836020820111156101db57600080fd5b803590602001918460208302840111600160201b831117156101fc57600080fd5b919080806020026020016040519081016040528093929190818152602001838360200280828437600092019190915250929550610bba945050505050565b60408051918252519081900360200190f35b6103776004803603606081101561026257600080fd5b810190602081018135600160201b81111561027c57600080fd5b82018360208201111561028e57600080fd5b803590602001918460208302840111600160201b831117156102af57600080fd5b91908080602002602001604051908101604052809392919081815260200183836020028082843760009201919091525092958435959094909350604081019250602001359050600160201b81111561030657600080fd5b82018360208201111561031857600080fd5b803590602001918460208302840111600160201b8311171561033957600080fd5b919080806020026020016040519081016040528093929190818152602001838360200280828437600092019190915250929550610bd3945050505050565b60408051602080825283518183015283519192839290830191858101910280838360005b838110156103b357818101518382015260200161039b565b505050509050019250505060405180910390f35b610377600480360360608110156103dd57600080fd5b810190602081018135600160201b8111156103f757600080fd5b82018360208201111561040957600080fd5b803590602001918460208302840111600160201b8311171561042a57600080fd5b9190808060200260200160405190810160405280939291908181526020018383602002808284376000920191909152509295949360208101935035915050600160201b81111561047957600080fd5b82018360208201111561048b57600080fd5b803590602001918460208302840111600160201b831117156104ac57600080fd5b9190808060200260200160405190810160405280939291908181526020018383602002808284376000920191909152509295505091359250610be0915050565b6106996004803603608081101561050257600080fd5b810190602081018135600160201b81111561051c57600080fd5b82018360208201111561052e57600080fd5b803590602001918460208302840111600160201b8311171561054f57600080fd5b9190808060200260200160405190810160405280939291908181526020018383602002808284376000920191909152509295949360208101935035915050600160201b81111561059e57600080fd5b8201836020820111156105b057600080fd5b803590602001918460208302840111600160201b831117156105d157600080fd5b91908080602002602001604051908101604052809392919081815260200183836020028082843760009201919091525092958435959094909350604081019250602001359050600160201b81111561062857600080fd5b82018360208201111561063a57600080fd5b803590602001918460208302840111600160201b8311171561065b57600080fd5b919080806020026020016040519081016040528093929190818152602001838360200280828437600092019190915250929550610bed945050505050565b6040518083815260200180602001828103825283818151815260200191508051906020019060200280838360005b838110156106df5781810151838201526020016106c7565b50505050905001935050505060405180910390f35b61023a6004803603608081101561070a57600080fd5b81359160208101359160408201359190810190608081016060820135600160201b81111561073757600080fd5b82018360208201111561074957600080fd5b803590602001918460208302840111600160201b8311171561076a57600080fd5b919080806020026020016040519081016040528093929190818152602001838360200280828437600092019190915250929550610c0b945050505050565b61023a600480360360a08110156107be57600080fd5b810190602081018135600160201b8111156107d857600080fd5b8201836020820111156107ea57600080fd5b803590602001918460208302840111600160201b8311171561080b57600080fd5b9190808060200260200160405190810160405280939291908181526020018383602002808284376000920191909152509295949360208101935035915050600160201b81111561085a57600080fd5b82018360208201111561086c57600080fd5b803590602001918460208302840111600160201b8311171561088d57600080fd5b9190808060200260200160405190810160405280939291908181526020018383602002808284376000920191909152509295949360208101935035915050600160201b8111156108dc57600080fd5b8201836020820111156108ee57600080fd5b803590602001918460208302840111600160201b8311171561090f57600080fd5b91908080602002602001604051908101604052809392919081815260200183836020028082843760009201919091525092958435959094909350604081019250602001359050600160201b81111561096657600080fd5b82018360208201111561097857600080fd5b803590602001918460208302840111600160201b8311171561099957600080fd5b919080806020026020016040519081016040528093929190818152602001838360200280828437600092019190915250929550610c19945050505050565b610377600480360360808110156109ed57600080fd5b810190602081018135600160201b811115610a0757600080fd5b820183602082011115610a1957600080fd5b803590602001918460208302840111600160201b83111715610a3a57600080fd5b9190808060200260200160405190810160405280939291908181526020018383602002808284376000920191909152509295843595602086013595919450925060608101915060400135600160201b811115610a9557600080fd5b820183602082011115610aa757600080fd5b803590602001918460208302840111600160201b83111715610ac857600080fd5b919080806020026020016040519081016040528093929190818152602001838360200280828437600092019190915250929550610c32945050505050565b61023a60048036036080811015610b1c57600080fd5b81359160208101359160408201359190810190608081016060820135600160201b811115610b4957600080fd5b820183602082011115610b5b57600080fd5b803590602001918460208302840111600160201b83111715610b7c57600080fd5b919080806020026020016040519081016040528093929190818152602001838360200280828437600092019190915250929550610c40945050505050565b6000610bc885858585610c4e565b90505b949350505050565b6060610bcb848484611182565b6060610bcb848484611274565b60006060610bfd86868686611376565b915091505b94509492505050565b6000610bc885858585611605565b6000610c288686868686611671565b9695505050505050565b6060610bc8858585856116dc565b6000610bc88585858561190e565b600082670de0b6b3a76400001415610c6f5750670de0b6b3a7640000610bcb565b610c77611e6b565b610c7f611ea1565b610c87611ed0565b87516000816001600160401b0381118015610ca157600080fd5b50604051908082528060200260200182016040528015610ccb578160200160208202803683370190505b50826001600160401b0381118015610ce257600080fd5b50604051908082528060200260200182016040528015610d0c578160200160208202803683370190505b50600060a088018190526060880181905260208801919091529086525b82811015610e1557610d6a888281518110610d4057fe5b60200260200101518c8381518110610d5457fe5b602002602001015161195890919063ffffffff16565b8651805183908110610d7857fe5b60209081029190910101528551805182908110610d9157fe5b6020026020010151866060018181510191508181525050610dcb888281518110610db757fe5b60200260200101518b8381518110610d5457fe5b86602001518281518110610ddb57fe5b60200260200101818152505085602001518181518110610df757fe5b602090810291909101015160a0870180519091019052600101610d29565b5084606001518560a001511115610e6e57606085015115610e5d57610e5588610e4f87606001518860a001516119a890919063ffffffff16565b90611958565b905080610e61565b5086805b509450610bcb9350505050565b84606001518560a001511415610e8b578795505050505050610bcb565b81606481610e9557fe5b046080850152816001600160401b0381118015610eb157600080fd5b50604051908082528060200260200182016040528015610edb578160200160208202803683370190505b506020850152816001600160401b0381118015610ef757600080fd5b50604051908082528060200260200182016040528015610f21578160200160208202803683370190505b508452816001600160401b0381118015610f3a57600080fd5b50604051908082528060200260200182016040528015610f64578160200160208202803683370190505b5060408501526000805b838110156111735786602001518181518110610f8657fe5b602002602001015160001461116b5786518051610fce91610fc69184908110610fab57fe5b602002602001015189606001516119a890919063ffffffff16565b6064906119a8565b8651805183908110610fdc57fe5b60209081029190910101528551805182908110610ff557fe5b602002602001015186608001511015611044576080860151865180518390811061101b57fe5b6020026020010151038660200151828151811061103457fe5b602002602001018181525061107c565b855180518290811061105257fe5b60200260200101518660800151038660200151828151811061107057fe5b60200260200101818152505b506110bc610fc68860200151838151811061109357fe5b60200260200101516110b68a60a001518b606001516119f990919063ffffffff16565b906119a8565b866040015182815181106110cc57fe5b602002602001018181525050611102866040015182815181106110eb57fe5b60200260200101518b6119a890919063ffffffff16565b6040860152602086015180518290811061111857fe5b6020026020010151600014611161576111558660200151828151811061113a57fe5b602002602001015186604001516119a890919063ffffffff16565b60408601805190910190525b8460400151820191505b600101610f6e565b509a9950505050505050505050565b825160609081816001600160401b038111801561119e57600080fd5b506040519080825280602002602001820160405280156111c8578160200160208202803683370190505b509050841561126b5760005b82811015611269578681815181106111e857fe5b602002602001015160001461124657600061121c86838151811061120857fe5b6020026020010151898481518110610d5457fe5b90506112288188611a12565b83838151811061123457fe5b60200260200101818152505050611261565b600082828151811061125457fe5b6020026020010181815250505b6001016111d4565b505b95945050505050565b606061127e611e6b565b60005b84518110156112d95760006112c586838151811061129b57fe5b60200260200101518884815181106112af57fe5b6020026020010151611a5490919063ffffffff16565b606084018051909101905250600101611281565b50606084516001600160401b03811180156112f357600080fd5b5060405190808252806020026020018201604052801561131d578160200160208202803683370190505b50905061135561134e8660008151811061133357fe5b602002602001015184606001516119a890919063ffffffff16565b8590611a54565b8160008151811061136257fe5b602090810291909101015295945050505050565b60006060611382611e6b565b61138a611ea1565b611392611ed0565b8851806001600160401b03811180156113aa57600080fd5b506040519080825280602002602001820160405280156113d4578160200160208202803683370190505b50816001600160401b03811180156113eb57600080fd5b50604051908082528060200260200182016040528015611415578160200160208202803683370190505b50600060808701819052606087015260408601528452806001600160401b038111801561144157600080fd5b5060405190808252806020026020018201604052801561146b578160200160208202803683370190505b506000602084018190529084525b8181101561152757611490888281518110610d4057fe5b855180518390811061149e57fe5b602090810291909101015284518051829081106114b757fe5b60200260200101518560600181815101915081815250506114dd888281518110610db757fe5b856040015182815181106114ed57fe5b6020026020010181815250508460400151818151811061150957fe5b60209081029190910101516080860180519091019052600101611479565b508360800151846060015114156115475787899550955050505050610c02565b60005b818110156115f35761158085606001518660400151838151811061156a57fe5b60200260200101516119a890919063ffffffff16565b845180518390811061158e57fe5b6020026020010181815250508981815181106115a657fe5b60200260200101516000146115eb576115df846000015182815181106115c857fe5b60200260200101518a61195890919063ffffffff16565b60208401805190910190525b60010161154a565b50506020015198969750505050505050565b60008261161457506000610bcb565b600061163c83868151811061162557fe5b60200260200101518561195890919063ffffffff16565b9050600061166684888151811061164f57fe5b6020026020010151836119a890919063ffffffff16565b979650505050505050565b8451600090816116848888888888611a80565b90506000805b838110156116c1576116b58682815181106116a157fe5b60200260200101518a8381518110610d5457fe5b9091019060010161168a565b5060006116ce8284611a12565b9a9950505050505050505050565b60606116e6611e6b565b6116ee611ea1565b6116f6611ed0565b8751806001600160401b038111801561170e57600080fd5b50604051908082528060200260200182016040528015611738578160200160208202803683370190505b50816001600160401b038111801561174f57600080fd5b50604051908082528060200260200182016040528015611779578160200160208202803683370190505b506000606087015260408601528452806001600160401b038111801561179e57600080fd5b506040519080825280602002602001820160405280156117c8578160200160208202803683370190505b5060208301899052835260005b81811015611831576117ec878281518110610db757fe5b85518051839081106117fa57fe5b6020908102919091010152845180518290811061181357fe5b602090810291909101015160608601805190910190526001016117d5565b50602082015160009061184490896119a8565b905060608a516001600160401b038111801561185f57600080fd5b50604051908082528060200260200182016040528015611889578160200160208202803683370190505b50905060005b8b51811015611173576118ac8388600001518381518110610d5457fe5b876040015182815181106118bc57fe5b6020026020010181815250506118ef8982815181106118d757fe5b60200260200101518860400151838151811061156a57fe5b8282815181106118fb57fe5b602090810291909101015260010161188f565b60008261191d57506000610bcb565b600061192e83878151811061162557fe5b9050600061166684878151811061194157fe5b602002602001015183611a1290919063ffffffff16565b600082820261197c84158061197557508385838161197257fe5b04145b6003611e06565b8061198b5760009150506119a2565b670de0b6b3a764000060001982015b046001019150505b92915050565b60006119b78215156004611e06565b826119c4575060006119a2565b670de0b6b3a7640000838102906119e7908583816119de57fe5b04146005611e06565b8281816119f057fe5b049150506119a2565b6000828201611a0b8482101583611e06565b9392505050565b6000611a218215156004611e06565b82611a2e575060006119a2565b670de0b6b3a764000083810290611a48908583816119de57fe5b82600182038161199a57fe5b6000828202611a6e84158061197557508385838161197257fe5b670de0b6b3a764000090049392505050565b6000611a8a611e6b565b8651806001600160401b0381118015611aa257600080fd5b50604051908082528060200260200182016040528015611acc578160200160208202803683370190505b50816001600160401b0381118015611ae357600080fd5b50604051908082528060200260200182016040528015611b0d578160200160208202803683370190505b50826001600160401b0381118015611b2457600080fd5b50604051908082528060200260200182016040528015611b4e578160200160208202803683370190505b506040850152602084015282526000606080840191909152816001600160401b0381118015611b7c57600080fd5b50604051908082528060200260200182016040528015611ba6578160200160208202803683370190505b5090506000805b83811015611c5f57611bc4878281518110610d4057fe5b8551805183908110611bd257fe5b602002602001018181525050611bed878281518110610db757fe5b85602001518281518110611bfd57fe5b602002602001018181525050611c188782815181106116a157fe5b85604001518281518110611c2857fe5b60209081029190910101528451805182908110611c4157fe5b60209081029190910101516060860180519091019052600101611bad565b5060005b83811015611dfb578451805182908110611c7957fe5b6020026020010151600014611cd657611cb9610fc686600001518381518110611c9e57fe5b602002602001015187606001516119a890919063ffffffff16565b838281518110611cc557fe5b602002602001018181525050611cf1565b6000838281518110611ce457fe5b6020026020010181815250505b601e838281518110611cff57fe5b602002602001015111611d1757601982019150611df3565b601e838281518110611d2557fe5b6020026020010151118015611d4e57506028838281518110611d4357fe5b602002602001015111155b15611d5e57601482019150611df3565b6028838281518110611d6c57fe5b6020026020010151118015611d9557506032838281518110611d8a57fe5b602002602001015111155b15611da557600f82019150611df3565b6032838281518110611db357fe5b6020026020010151118015611ddc5750603c838281518110611dd157fe5b602002602001015111155b15611dec57600a82019150611df3565b6005820191505b600101611c63565b506116ce8188611958565b81611e1457611e1481611e18565b5050565b62461bcd60e51b6000908152602060045260076024526642414c23000030600a808404818106603090810160081b95839006959095019082900491820690940160101b939093010160c81b604452606490fd5b6040518060c001604052806060815260200160608152602001606081526020016000815260200160008152602001600081525090565b6040518060a0016040528060608152602001606081526020016060815260200160608152602001600081525090565b604051806080016040528060008152602001600081526020016000815260200160008152509056fea26469706673582212208d8f7e8b564ad2aef5bd69b643abf2ce330d976b87af51d815712509cdf5a42364736f6c63430007010033",
  "immutableReferences": {},
  "source": "// SPDX-License-Identifier: GPL-3.0-or-later\n// This program is free software: you can redistribute it and/or modify\n// it under the terms of the GNU General Public License as published by\n// the Free Software Foundation, either version 3 of the License, or\n// (at your option) any later version.\n\n// This program is distributed in the hope that it will be useful,\n// but WITHOUT ANY WARRANTY; without even the implied warranty of\n// MERCHANTABILITY or FITNESS FOR A PARTICULAR PURPOSE.  See the\n// GNU General Public License for more details.\n\n// You should have received a copy of the GNU General Public License\n// along with this program.  If not, see <http://www.gnu.org/licenses/>.\n\npragma solidity ^0.7.1;\n\nimport \"../StationMath.sol\";\n\ncontract MockStationMath is StationMath {\n// solhint-disable private-vars-leading-underscore\n// solhint-disable var-name-mixedcase\n        function inGivenOut(\n            uint256 tokenIndexIn,\n            uint256 tokenIndexOut,\n            uint256 tokenAmountOut,\n            uint256[] memory prices\n        ) external pure returns(uint256) {\n            return _inGivenOut(tokenIndexIn,\n             tokenIndexOut,\n             tokenAmountOut,\n             prices);\n        }\n\n        function outGivenIn(\n        uint256 tokenIndexIn,\n        uint256 tokenIndexOut, \n        uint256 tokenAmountIn, \n        uint256[] memory prices\n        ) external pure returns(uint256) {\n            return _outGivenIn(\n                tokenIndexIn,\n                tokenIndexOut, \n                tokenAmountIn, \n                prices\n                );\n        }\n\n       function bptOutForAllTokensIn(\n            uint256[] memory balances,\n            uint256[] memory amountsIn,\n            uint256 totalBPT,\n            uint256[] memory prices\n        ) external pure returns(uint256) {\n            return _bptOutForAllTokensIn(\n                balances,\n                amountsIn,\n                totalBPT,\n                prices);\n        }\n\n        function bptInForAllTokensOut(\n            uint256[] memory balances,\n            uint256[] memory amountsOut,\n            uint256 totalBPT,\n            uint256[] memory prices\n        ) external pure returns (uint256, uint256[] memory) {\n            return _bptInForAllTokensOut(\n                balances,\n                amountsOut,\n                totalBPT,\n                prices\n                );\n        }\n\n        function tokensOutForExactBptIn(\n            uint256[] memory balances,\n            uint256 bptAmountIn,\n            uint256 totalBPT,\n            uint256[] memory prices\n        ) external pure returns (uint256[] memory){\n            return _tokensOutForExactBptIn(\n                balances,\n                bptAmountIn,\n                totalBPT,\n                prices\n                );\n        }\n\n        function calculateSwapFeeAmount(\n            uint256[] memory balances,\n            uint256[] memory amountsIn,\n            uint256[] memory amountsOut,\n            uint256 amp,\n            uint256[] memory prices\n        ) external pure returns(uint256){\n            return _calculateSwapFeeAmount(\n                balances,\n                amountsIn,\n                amountsOut,\n                amp,\n                prices\n                );\n        }\n\n        function calcDueTokenProtocolSwapFeeAmount(\n            uint256[] memory feeTotals,\n            uint256[] memory prices,\n            uint256 protocolSwapFeePercentage\n            \n        ) external pure returns (uint256[] memory) {\n            return _calcDueTokenProtocolSwapFeeAmount(feeTotals, prices, protocolSwapFeePercentage);\n        }\n        \n        function calculateWithdrawFee(\n            uint256[] memory amountsOut,\n            uint256 withdrawFeeRate,\n            uint256[] memory prices\n        ) external pure returns (uint256[] memory) {\n            return _calculateWithdrawFee(amountsOut, withdrawFeeRate, prices);\n        }\n}",
  "sourcePath": "/home/tatsu/Station/CrossAssetPaymentPool/contracts/test/MockStationMath.sol",
  "compiler": {
    "name": "solc",
    "version": "0.7.1+commit.f4a555be.Emscripten.clang"
  },
  "schemaVersion": "3.4.2",
  "updatedAt": "2021-08-19T23:37:52.602Z",
  "networkType": "ethereum",
  "devdoc": {
    "kind": "dev",
    "methods": {},
    "version": 1
  },
  "userdoc": {
    "kind": "user",
    "methods": {},
    "version": 1
  }
}