{
  "contractName": "Oracle",
  "abi": [
    {
      "inputs": [
        {
          "internalType": "contract IStdReference",
          "name": "_ref",
          "type": "address"
        }
      ],
      "stateMutability": "nonpayable",
      "type": "constructor"
    },
    {
      "inputs": [],
      "name": "price",
      "outputs": [
        {
          "internalType": "uint256",
          "name": "",
          "type": "uint256"
        }
      ],
      "stateMutability": "view",
      "type": "function"
    },
    {
      "inputs": [],
      "name": "ref",
      "outputs": [
        {
          "internalType": "contract IStdReference",
          "name": "",
          "type": "address"
        }
      ],
      "stateMutability": "view",
      "type": "function"
    },
    {
      "inputs": [],
      "name": "getPrice",
      "outputs": [
        {
          "internalType": "uint256",
          "name": "",
          "type": "uint256"
        }
      ],
      "stateMutability": "view",
      "type": "function"
    },
    {
      "inputs": [],
      "name": "getMultiPrices",
      "outputs": [
        {
          "internalType": "uint256[]",
          "name": "",
          "type": "uint256[]"
        }
      ],
      "stateMutability": "view",
      "type": "function"
    },
    {
      "inputs": [
        {
          "internalType": "string",
          "name": "base",
          "type": "string"
        },
        {
          "internalType": "string",
          "name": "quote",
          "type": "string"
        }
      ],
      "name": "savePrice",
      "outputs": [],
      "stateMutability": "nonpayable",
      "type": "function"
    }
  ],
  "bytecode": "0x608060405234801561001057600080fd5b50604051610a84380380610a8483398101604081905261002f91610054565b600080546001600160a01b0319166001600160a01b0392909216919091179055610082565b600060208284031215610065578081fd5b81516001600160a01b038116811461007b578182fd5b9392505050565b6109f3806100916000396000f3fe608060405234801561001057600080fd5b50600436106100575760003560e01c806321a78f681461005c57806398d5fdca1461007a5780639c1ea71b1461008f578063a035b1fe146100a4578063e2bb9657146100ac575b600080fd5b6100646100c1565b604051610071919061091d565b60405180910390f35b6100826100d0565b604051610071919061098d565b61009761015f565b60405161007191906108d9565b610082610579565b6100bf6100ba366004610787565b61057f565b005b6000546001600160a01b031681565b60006100da610612565b60005460405163195556f360e21b81526001600160a01b03909116906365555bcc9061010890600401610956565b60606040518083038186803b15801561012057600080fd5b505afa158015610134573d6000803e3d6000fd5b505050506040513d601f19601f8201168201806040525081019061015891906107e8565b5191505090565b60408051600580825260c08201909252606091829190816020015b606081526020019060019003908161017a5790505090506040518060400160405280600381526020016242544360e81b815250816000815181106101ba57fe5b60200260200101819052506040518060400160405280600381526020016244414960e81b815250816001815181106101ee57fe5b60200260200101819052506040518060400160405280600381526020016208aa8960eb1b8152508160028151811061022257fe5b6020026020010181905250604051806040016040528060048152602001635553444360e01b8152508160038151811061025757fe5b6020026020010181905250604051806040016040528060048152602001631554d11560e21b8152508160048151811061028c57fe5b602090810291909101015260408051600580825260c08201909252606091816020015b60608152602001906001900390816102af579050509050604051806040016040528060038152602001621554d160ea1b815250816000815181106102ef57fe5b6020026020010181905250604051806040016040528060038152602001621554d160ea1b8152508160018151811061032357fe5b6020026020010181905250604051806040016040528060038152602001621554d160ea1b8152508160028151811061035757fe5b6020026020010181905250604051806040016040528060038152602001621554d160ea1b8152508160038151811061038b57fe5b6020026020010181905250604051806040016040528060038152602001621554d160ea1b815250816004815181106103bf57fe5b602090810291909101015260005460405163e42a071b60e01b81526060916001600160a01b03169063e42a071b906103fd90869086906004016108ab565b60006040518083038186803b15801561041557600080fd5b505afa158015610429573d6000803e3d6000fd5b505050506040513d6000823e601f3d908101601f1916820160405261045191908101906106d7565b60408051600580825260c08201909252919250606091906020820160a0803683370190505090508160008151811061048557fe5b6020026020010151600001518160008151811061049e57fe5b602002602001018181525050816001815181106104b757fe5b602002602001015160000151816001815181106104d057fe5b602002602001018181525050816002815181106104e957fe5b6020026020010151600001518160028151811061050257fe5b6020026020010181815250508160038151811061051b57fe5b6020026020010151600001518160038151811061053457fe5b6020026020010181815250508160048151811061054d57fe5b6020026020010151600001518160048151811061056657fe5b6020908102919091010152935050505090565b60015481565b610587610612565b60005460405163195556f360e21b81526001600160a01b03909116906365555bcc906105b99086908690600401610931565b60606040518083038186803b1580156105d157600080fd5b505afa1580156105e5573d6000803e3d6000fd5b505050506040513d601f19601f8201168201806040525081019061060991906107e8565b51600155505050565b60405180606001604052806000815260200160008152602001600081525090565b600082601f830112610643578081fd5b813567ffffffffffffffff811115610659578182fd5b61066c601f8201601f1916602001610996565b915080825283602082850101111561068357600080fd5b8060208401602084013760009082016020015292915050565b6000606082840312156106ad578081fd5b6106b76060610996565b905081518152602082015160208201526040820151604082015292915050565b600060208083850312156106e9578182fd5b825167ffffffffffffffff80821115610700578384fd5b818501915085601f830112610713578384fd5b815181811115610721578485fd5b61072e8485830201610996565b81815284810192508385016060808402860187018a101561074d578788fd5b8795505b83861015610779576107638a8361069c565b8552600195909501949386019390810190610751565b509098975050505050505050565b60008060408385031215610799578081fd5b823567ffffffffffffffff808211156107b0578283fd5b6107bc86838701610633565b935060208501359150808211156107d1578283fd5b506107de85828601610633565b9150509250929050565b6000606082840312156107f9578081fd5b610803838361069c565b9392505050565b60008282518085526020808601955080818302840101818601855b8481101561085357601f19868403018952610841838351610860565b98840198925090830190600101610825565b5090979650505050505050565b60008151808452815b8181101561088557602081850181015186830182015201610869565b818111156108965782602083870101525b50601f01601f19169290920160200192915050565b6000604082526108be604083018561080a565b82810360208401526108d0818561080a565b95945050505050565b6020808252825182820181905260009190848201906040850190845b81811015610911578351835292840192918401916001016108f5565b50909695505050505050565b6001600160a01b0391909116815260200190565b6000604082526109446040830185610860565b82810360208401526108d08185610860565b604080825260039082018190526208aa8960eb1b6060830152608060208301819052820152621554d160ea1b60a082015260c00190565b90815260200190565b60405181810167ffffffffffffffff811182821017156109b557600080fd5b60405291905056fea2646970667358221220afa40e05d395155f87676fad577ee542bd77f084db1b81d9cee198e38e3b053464736f6c63430007010033",
  "immutableReferences": {},
  "source": "// SPDX-License-Identifier: GPL-3.0-or-later\n// This program is free software: you can redistribute it and/or modify\n// it under the terms of the GNU General Public License as published by\n// the Free Software Foundation, either version 3 of the License, or\n// (at your option) any later version.\n\n// This program is distributed in the hope that it will be useful,\n// but WITHOUT ANY WARRANTY; without even the implied warranty of\n// MERCHANTABILITY or FITNESS FOR A PARTICULAR PURPOSE.  See the\n// GNU General Public License for more details.\n\n// You should have received a copy of the GNU General Public License\n// along with this program.  If not, see <http://www.gnu.org/licenses/>.\npragma solidity ^0.7.1;\npragma experimental ABIEncoderV2;\n\n// This Contract is the Band Protocol Standard Data Reference. It is used to get prices For\n// all tokens in the pool in USD, using the 1e18 format.\ninterface IStdReference {\n    /// A structure returned whenever someone requests for standard reference data.\n    struct ReferenceData {\n        uint256 rate; // base/quote exchange rate, multiplied by 1e18.\n        uint256 lastUpdatedBase; // UNIX epoch of the last time when base price gets updated.\n        uint256 lastUpdatedQuote; // UNIX epoch of the last time when quote price gets updated.\n    }\n\n    /// Returns the price data for the given base/quote pair. Revert if not available.\n    function getReferenceData(string memory _base, string memory _quote)\n        external\n        view\n        returns (ReferenceData memory);\n\n    /// Similar to getReferenceData, but with multiple base/quote pairs at once.\n    function getReferenceDataBulk(string[] memory _bases, string[] memory _quotes)\n        external\n        view\n        returns (ReferenceData[] memory);\n}\n\ncontract Oracle {\n\n    IStdReference public ref;\n\n    uint256 public price;\n\n    constructor(IStdReference _ref) {\n      //// Kovan testnet address where reference data can be queried.\n        ref = _ref;\n    }\n\n    function getPrice() external view returns (uint256){\n        IStdReference.ReferenceData memory data = ref.getReferenceData(\"ETH\",\"USD\");\n        return data.rate;\n    }\n\n    function getMultiPrices() external view returns (uint256[] memory){\n        string[] memory baseSymbols = new string[](5);\n        baseSymbols[0] = \"BTC\";\n        baseSymbols[1] = \"DAI\";\n        baseSymbols[2] = \"ETH\";\n        baseSymbols[3] = \"USDC\";\n        baseSymbols[4] = \"USDT\";\n\n        string[] memory quoteSymbols = new string[](5);\n        quoteSymbols[0] = \"USD\";\n        quoteSymbols[1] = \"USD\";\n        quoteSymbols[2] = \"USD\";\n        quoteSymbols[3] = \"USD\";\n        quoteSymbols[4] = \"USD\";\n        IStdReference.ReferenceData[] memory data = ref.getReferenceDataBulk(baseSymbols,quoteSymbols);\n\n        uint256[] memory prices = new uint256[](5);\n        prices[0] = data[0].rate;\n        prices[1] = data[1].rate;\n        prices[2] = data[2].rate;\n        prices[3] = data[3].rate;\n        prices[4] = data[4].rate;\n\n        return prices;\n    }\n\n    function savePrice(string memory base, string memory quote) external {\n        IStdReference.ReferenceData memory data = ref.getReferenceData(base,quote);\n        price = data.rate;\n    }\n}",
  "sourcePath": "/home/tatsu/Station/CrossAssetPaymentPool/contracts/Oracle.sol",
  "compiler": {
    "name": "solc",
    "version": "0.7.1+commit.f4a555be.Emscripten.clang"
  },
  "schemaVersion": "3.4.2",
  "updatedAt": "2021-08-19T22:46:59.519Z",
  "devdoc": {
    "kind": "dev",
    "methods": {},
    "version": 1
  },
  "userdoc": {
    "kind": "user",
    "methods": {},
    "version": 1
  }
}