{
  "contractName": "ProtocolFeesCollector",
  "abi": [
    {
      "inputs": [
        {
          "internalType": "contract IVault",
          "name": "_vault",
          "type": "address"
        }
      ],
      "stateMutability": "nonpayable",
      "type": "constructor"
    },
    {
      "anonymous": false,
      "inputs": [
        {
          "indexed": false,
          "internalType": "uint256",
          "name": "newFlashLoanFeePercentage",
          "type": "uint256"
        }
      ],
      "name": "FlashLoanFeePercentageChanged",
      "type": "event"
    },
    {
      "anonymous": false,
      "inputs": [
        {
          "indexed": false,
          "internalType": "uint256",
          "name": "newSwapFeePercentage",
          "type": "uint256"
        }
      ],
      "name": "SwapFeePercentageChanged",
      "type": "event"
    },
    {
      "inputs": [
        {
          "internalType": "bytes4",
          "name": "selector",
          "type": "bytes4"
        }
      ],
      "name": "getActionId",
      "outputs": [
        {
          "internalType": "bytes32",
          "name": "",
          "type": "bytes32"
        }
      ],
      "stateMutability": "view",
      "type": "function"
    },
    {
      "inputs": [],
      "name": "vault",
      "outputs": [
        {
          "internalType": "contract IVault",
          "name": "",
          "type": "address"
        }
      ],
      "stateMutability": "view",
      "type": "function"
    },
    {
      "inputs": [
        {
          "internalType": "contract IERC20[]",
          "name": "tokens",
          "type": "address[]"
        },
        {
          "internalType": "uint256[]",
          "name": "amounts",
          "type": "uint256[]"
        },
        {
          "internalType": "address",
          "name": "recipient",
          "type": "address"
        }
      ],
      "name": "withdrawCollectedFees",
      "outputs": [],
      "stateMutability": "nonpayable",
      "type": "function"
    },
    {
      "inputs": [
        {
          "internalType": "uint256",
          "name": "newSwapFeePercentage",
          "type": "uint256"
        }
      ],
      "name": "setSwapFeePercentage",
      "outputs": [],
      "stateMutability": "nonpayable",
      "type": "function"
    },
    {
      "inputs": [
        {
          "internalType": "uint256",
          "name": "newFlashLoanFeePercentage",
          "type": "uint256"
        }
      ],
      "name": "setFlashLoanFeePercentage",
      "outputs": [],
      "stateMutability": "nonpayable",
      "type": "function"
    },
    {
      "inputs": [],
      "name": "getSwapFeePercentage",
      "outputs": [
        {
          "internalType": "uint256",
          "name": "",
          "type": "uint256"
        }
      ],
      "stateMutability": "view",
      "type": "function"
    },
    {
      "inputs": [],
      "name": "getFlashLoanFeePercentage",
      "outputs": [
        {
          "internalType": "uint256",
          "name": "",
          "type": "uint256"
        }
      ],
      "stateMutability": "view",
      "type": "function"
    },
    {
      "inputs": [
        {
          "internalType": "contract IERC20[]",
          "name": "tokens",
          "type": "address[]"
        }
      ],
      "name": "getCollectedFeeAmounts",
      "outputs": [
        {
          "internalType": "uint256[]",
          "name": "feeAmounts",
          "type": "uint256[]"
        }
      ],
      "stateMutability": "view",
      "type": "function"
    },
    {
      "inputs": [],
      "name": "getAuthorizer",
      "outputs": [
        {
          "internalType": "contract IAuthorizer",
          "name": "",
          "type": "address"
        }
      ],
      "stateMutability": "view",
      "type": "function"
    }
  ],
  "bytecode": "0x60c060405234801561001057600080fd5b50604051610b47380380610b4783398101604081905261002f9161004d565b30608052600160005560601b6001600160601b03191660a05261007b565b60006020828403121561005e578081fd5b81516001600160a01b0381168114610074578182fd5b9392505050565b60805160a05160601c610aa16100a66000398061040352806104f45250806102975250610aa16000f3fe608060405234801561001057600080fd5b50600436106100935760003560e01c8063851c1bb311610066578063851c1bb3146100f1578063aaabadc514610104578063d877845c14610119578063e42abf3514610121578063fbfa77cf1461014157610093565b806338e9922e1461009857806355c67628146100ad5780636b6b9f69146100cb5780636daefab6146100de575b600080fd5b6100ab6100a6366004610915565b610149565b005b6100b56101a8565b6040516100c29190610a07565b60405180910390f35b6100ab6100d9366004610915565b6101ae565b6100ab6100ec366004610762565b610201565b6100b56100ff3660046108b5565b610293565b61010c6102e5565b6040516100c29190610996565b6100b56102f4565b61013461012f3660046107e3565b6102fa565b6040516100c291906109c3565b61010c610401565b610151610425565b6101686706f05b59d3b20000821115610258610456565b60018190556040517fa9ba3ffe0b6c366b81232caab38605a0699ad5398d6cce76f91ee809e322dafc9061019d908390610a07565b60405180910390a150565b60015490565b6101b6610425565b6101cc662386f26fc10000821115610259610456565b60028190556040517f5a0b7386237e7f07fa741efc64e59c9387d2cccafec760efed4d53387f20e19a9061019d908390610a07565b610209610468565b610211610425565b61021b8483610481565b60005b8481101561028357600086868381811061023457fe5b905060200201602081019061024991906108f9565b9050600085858481811061025957fe5b6020029190910135915061027990506001600160a01b038316858361048e565b505060010161021e565b5061028c6104e9565b5050505050565b60007f0000000000000000000000000000000000000000000000000000000000000000826040516020016102c8929190610945565b604051602081830303815290604052805190602001209050919050565b60006102ef6104f0565b905090565b60025490565b6060815167ffffffffffffffff8111801561031457600080fd5b5060405190808252806020026020018201604052801561033e578160200160208202803683370190505b50905060005b82518110156103fb5782818151811061035957fe5b60200260200101516001600160a01b03166370a08231306040518263ffffffff1660e01b815260040161038c9190610996565b60206040518083038186803b1580156103a457600080fd5b505afa1580156103b8573d6000803e3d6000fd5b505050506040513d601f19601f820116820180604052508101906103dc919061092d565b8282815181106103e857fe5b6020908102919091010152600101610344565b50919050565b7f000000000000000000000000000000000000000000000000000000000000000081565b600061043c6000356001600160e01b031916610293565b905061045361044b8233610583565b610191610456565b50565b816104645761046481610615565b5050565b61047a60026000541415610190610456565b6002600055565b6104648183146067610456565b6104e48363a9059cbb60e01b84846040516024016104ad9291906109aa565b60408051601f198184030181529190526020810180516001600160e01b03166001600160e01b031990931692909217909152610668565b505050565b6001600055565b60007f00000000000000000000000000000000000000000000000000000000000000006001600160a01b031663aaabadc56040518163ffffffff1660e01b815260040160206040518083038186803b15801561054b57600080fd5b505afa15801561055f573d6000803e3d6000fd5b505050506040513d601f19601f820116820180604052508101906102ef91906108dd565b600061058d6104f0565b6001600160a01b0316639be2a8848484306040518463ffffffff1660e01b81526004016105bc93929190610a10565b60206040518083038186803b1580156105d457600080fd5b505afa1580156105e8573d6000803e3d6000fd5b505050506040513d601f19601f8201168201806040525081019061060c919061088e565b90505b92915050565b62461bcd60e51b6000908152602060045260076024526642414c23000030600a808404818106603090810160081b95839006959095019082900491820690940160101b939093010160c81b604452606490fd5b60006060836001600160a01b031683604051610684919061095d565b6000604051808303816000865af19150503d80600081146106c1576040519150601f19603f3d011682016040523d82523d6000602084013e6106c6565b606091505b509150915060008214156106de573d6000803e3d6000fd5b610708815160001480610700575081806020019051810190610700919061088e565b6101a2610456565b50505050565b60008083601f84011261071f578182fd5b50813567ffffffffffffffff811115610736578182fd5b602083019150836020808302850101111561075057600080fd5b9250929050565b803561060f81610a56565b600080600080600060608688031215610779578081fd5b853567ffffffffffffffff80821115610790578283fd5b61079c89838a0161070e565b909750955060208801359150808211156107b4578283fd5b506107c18882890161070e565b90945092505060408601356107d581610a56565b809150509295509295909350565b600060208083850312156107f5578182fd5b823567ffffffffffffffff8082111561080c578384fd5b818501915085601f83011261081f578384fd5b81358181111561082d578485fd5b838102915061083d848301610a2f565b8181528481019084860184860187018a1015610857578788fd5b8795505b838610156108815761086d8a82610757565b83526001959095019491860191860161085b565b5098975050505050505050565b60006020828403121561089f578081fd5b815180151581146108ae578182fd5b9392505050565b6000602082840312156108c6578081fd5b81356001600160e01b0319811681146108ae578182fd5b6000602082840312156108ee578081fd5b81516108ae81610a56565b60006020828403121561090a578081fd5b81356108ae81610a56565b600060208284031215610926578081fd5b5035919050565b60006020828403121561093e578081fd5b5051919050565b9182526001600160e01b031916602082015260240190565b60008251815b8181101561097d5760208186018101518583015201610963565b8181111561098b5782828501525b509190910192915050565b6001600160a01b0391909116815260200190565b6001600160a01b03929092168252602082015260400190565b6020808252825182820181905260009190848201906040850190845b818110156109fb578351835292840192918401916001016109df565b50909695505050505050565b90815260200190565b9283526001600160a01b03918216602084015216604082015260600190565b60405181810167ffffffffffffffff81118282101715610a4e57600080fd5b604052919050565b6001600160a01b038116811461045357600080fdfea2646970667358221220db0e1d5711dc66a958c36e3adacc76ac1391432e90343562c2cb6d3bfe87c43164736f6c63430007010033",
  "immutableReferences": {
    "2576": [
      {
        "length": 32,
        "start": 663
      }
    ],
    "14839": [
      {
        "length": 32,
        "start": 1027
      },
      {
        "length": 32,
        "start": 1268
      }
    ]
  },
  "source": "// SPDX-License-Identifier: GPL-3.0-or-later\n// This program is free software: you can redistribute it and/or modify\n// it under the terms of the GNU General Public License as published by\n// the Free Software Foundation, either version 3 of the License, or\n// (at your option) any later version.\n\n// This program is distributed in the hope that it will be useful,\n// but WITHOUT ANY WARRANTY; without even the implied warranty of\n// MERCHANTABILITY or FITNESS FOR A PARTICULAR PURPOSE.  See the\n// GNU General Public License for more details.\n\n// You should have received a copy of the GNU General Public License\n// along with this program.  If not, see <http://www.gnu.org/licenses/>.\n\npragma solidity ^0.7.0;\npragma experimental ABIEncoderV2;\n\nimport \"@balancer-labs/v2-solidity-utils/contracts/helpers/InputHelpers.sol\";\nimport \"@balancer-labs/v2-solidity-utils/contracts/helpers/Authentication.sol\";\nimport \"@balancer-labs/v2-solidity-utils/contracts/openzeppelin/ReentrancyGuard.sol\";\nimport \"@balancer-labs/v2-solidity-utils/contracts/openzeppelin/SafeERC20.sol\";\n\nimport \"./interfaces/IProtocolFeesCollector.sol\";\n\n/**\n * @dev This an auxiliary contract to the Vault, deployed by it during construction. It offloads some of the tasks the\n * Vault performs to reduce its overall bytecode size.\n *\n * The current values for all protocol fee percentages are stored here, and any tokens charged as protocol fees are\n * sent to this contract, where they may be withdrawn by authorized entities. All authorization tasks are delegated\n * to the Vault's own authorizer.\n */\ncontract ProtocolFeesCollector is IProtocolFeesCollector, Authentication, ReentrancyGuard {\n    using SafeERC20 for IERC20;\n\n    // Absolute maximum fee percentages (1e18 = 100%, 1e16 = 1%).\n    uint256 private constant _MAX_PROTOCOL_SWAP_FEE_PERCENTAGE = 50e16; // 50%\n    uint256 private constant _MAX_PROTOCOL_FLASH_LOAN_FEE_PERCENTAGE = 1e16; // 1%\n\n    IVault public immutable override vault;\n\n    // All fee percentages are 18-decimal fixed point numbers.\n\n    // The swap fee is charged whenever a swap occurs, as a percentage of the fee charged by the Pool. These are not\n    // actually charged on each individual swap: the `Vault` relies on the Pools being honest and reporting fees due\n    // when users join and exit them.\n    uint256 private _swapFeePercentage;\n\n    // The flash loan fee is charged whenever a flash loan occurs, as a percentage of the tokens lent.\n    uint256 private _flashLoanFeePercentage;\n\n    constructor(IVault _vault)\n        // The ProtocolFeesCollector is a singleton, so it simply uses its own address to disambiguate action\n        // identifiers.\n        Authentication(bytes32(uint256(address(this))))\n    {\n        vault = _vault;\n    }\n\n    function withdrawCollectedFees(\n        IERC20[] calldata tokens,\n        uint256[] calldata amounts,\n        address recipient\n    ) external override nonReentrant authenticate {\n        InputHelpers.ensureInputLengthMatch(tokens.length, amounts.length);\n\n        for (uint256 i = 0; i < tokens.length; ++i) {\n            IERC20 token = tokens[i];\n            uint256 amount = amounts[i];\n            token.safeTransfer(recipient, amount);\n        }\n    }\n\n    function setSwapFeePercentage(uint256 newSwapFeePercentage) external override authenticate {\n        _require(newSwapFeePercentage <= _MAX_PROTOCOL_SWAP_FEE_PERCENTAGE, Errors.SWAP_FEE_PERCENTAGE_TOO_HIGH);\n        _swapFeePercentage = newSwapFeePercentage;\n        emit SwapFeePercentageChanged(newSwapFeePercentage);\n    }\n\n    function setFlashLoanFeePercentage(uint256 newFlashLoanFeePercentage) external override authenticate {\n        _require(\n            newFlashLoanFeePercentage <= _MAX_PROTOCOL_FLASH_LOAN_FEE_PERCENTAGE,\n            Errors.FLASH_LOAN_FEE_PERCENTAGE_TOO_HIGH\n        );\n        _flashLoanFeePercentage = newFlashLoanFeePercentage;\n        emit FlashLoanFeePercentageChanged(newFlashLoanFeePercentage);\n    }\n\n    function getSwapFeePercentage() external view override returns (uint256) {\n        return _swapFeePercentage;\n    }\n\n    function getFlashLoanFeePercentage() external view override returns (uint256) {\n        return _flashLoanFeePercentage;\n    }\n\n    function getCollectedFeeAmounts(IERC20[] memory tokens)\n        external\n        view\n        override\n        returns (uint256[] memory feeAmounts)\n    {\n        feeAmounts = new uint256[](tokens.length);\n        for (uint256 i = 0; i < tokens.length; ++i) {\n            feeAmounts[i] = tokens[i].balanceOf(address(this));\n        }\n    }\n\n    function getAuthorizer() external view override returns (IAuthorizer) {\n        return _getAuthorizer();\n    }\n\n    function _canPerform(bytes32 actionId, address account) internal view override returns (bool) {\n        return _getAuthorizer().canPerform(actionId, account, address(this));\n    }\n\n    function _getAuthorizer() internal view returns (IAuthorizer) {\n        return vault.getAuthorizer();\n    }\n}\n",
  "sourcePath": "/home/tatsu/Station/CrossAssetPaymentPool/node_modules/@balancer-labs/v2-vault/contracts/ProtocolFeesCollector.sol",
  "compiler": {
    "name": "solc",
    "version": "0.7.1+commit.f4a555be.Emscripten.clang"
  },
  "schemaVersion": "3.4.2",
  "updatedAt": "2021-08-19T22:46:59.563Z",
  "devdoc": {
    "details": "This an auxiliary contract to the Vault, deployed by it during construction. It offloads some of the tasks the Vault performs to reduce its overall bytecode size. The current values for all protocol fee percentages are stored here, and any tokens charged as protocol fees are sent to this contract, where they may be withdrawn by authorized entities. All authorization tasks are delegated to the Vault's own authorizer.",
    "kind": "dev",
    "methods": {
      "getActionId(bytes4)": {
        "details": "Returns the action identifier associated with the external function described by `selector`."
      }
    },
    "version": 1
  },
  "userdoc": {
    "kind": "user",
    "methods": {},
    "version": 1
  }
}