{
  "contractName": "StationPoolFactory",
  "abi": [
    {
      "inputs": [
        {
          "internalType": "contract IVault",
          "name": "vault",
          "type": "address"
        }
      ],
      "stateMutability": "nonpayable",
      "type": "constructor"
    },
    {
      "anonymous": false,
      "inputs": [
        {
          "indexed": true,
          "internalType": "address",
          "name": "pool",
          "type": "address"
        }
      ],
      "name": "PoolCreated",
      "type": "event"
    },
    {
      "inputs": [],
      "name": "getPauseConfiguration",
      "outputs": [
        {
          "internalType": "uint256",
          "name": "pauseWindowDuration",
          "type": "uint256"
        },
        {
          "internalType": "uint256",
          "name": "bufferPeriodDuration",
          "type": "uint256"
        }
      ],
      "stateMutability": "view",
      "type": "function",
      "constant": true
    },
    {
      "inputs": [],
      "name": "getVault",
      "outputs": [
        {
          "internalType": "contract IVault",
          "name": "",
          "type": "address"
        }
      ],
      "stateMutability": "view",
      "type": "function",
      "constant": true
    },
    {
      "inputs": [
        {
          "internalType": "address",
          "name": "pool",
          "type": "address"
        }
      ],
      "name": "isPoolFromFactory",
      "outputs": [
        {
          "internalType": "bool",
          "name": "",
          "type": "bool"
        }
      ],
      "stateMutability": "view",
      "type": "function",
      "constant": true
    },
    {
      "inputs": [
        {
          "internalType": "string",
          "name": "name",
          "type": "string"
        },
        {
          "internalType": "string",
          "name": "symbol",
          "type": "string"
        },
        {
          "internalType": "contract IERC20[]",
          "name": "tokens",
          "type": "address[]"
        },
        {
          "internalType": "uint256[]",
          "name": "valWeights",
          "type": "uint256[]"
        },
        {
          "internalType": "uint256",
          "name": "amp",
          "type": "uint256"
        },
        {
          "internalType": "address[]",
          "name": "assetManagers",
          "type": "address[]"
        },
        {
          "internalType": "uint256",
          "name": "swapFeePercentage",
          "type": "uint256"
        },
        {
          "internalType": "address",
          "name": "owner",
          "type": "address"
        }
      ],
      "name": "create",
      "outputs": [
        {
          "internalType": "address",
          "name": "",
          "type": "address"
        }
      ],
      "stateMutability": "nonpayable",
      "type": "function"
    }
  ],
  "bytecode": "0x60c060405234801561001057600080fd5b50604051615a01380380615a0183398101604081905261002f9161004d565b60601b6001600160601b0319166080526276a700420160a05261007b565b60006020828403121561005e578081fd5b81516001600160a01b0381168114610074578182fd5b9392505050565b60805160601c60a05161595c6100a56000398060d6528061010052508061015c525061595c6000f3fe60806040523480156200001157600080fd5b5060043610620000525760003560e01c80632da47c4014620000575780636634b753146200007a5780638d928af814620000a0578063e34c39fd14620000b9575b600080fd5b62000061620000d0565b6040516200007192919062000706565b60405180910390f35b620000916200008b3660046200043e565b6200013c565b6040516200007191906200061b565b620000aa6200015a565b60405162000071919062000607565b620000aa620000ca36600462000464565b6200017e565b600080427f00000000000000000000000000000000000000000000000000000000000000008110156200012e57807f000000000000000000000000000000000000000000000000000000000000000003925062278d00915062000137565b60009250600091505b509091565b6001600160a01b031660009081526020819052604090205460ff1690565b7f000000000000000000000000000000000000000000000000000000000000000090565b60008060006200018d620000d0565b9150915064e8d4a5100094506000620001a56200015a565b8c8c8c8c8c8c8c8a8a8e604051620001bd9062000259565b620001d39b9a9998979695949392919062000626565b604051809103906000f080158015620001f0573d6000803e3d6000fd5b509050620001fe816200020d565b9b9a5050505050505050505050565b6001600160a01b038116600081815260208190526040808220805460ff19166001179055517f83a48fbcfc991335314e74d0496aab6a1987e992ddc85dddbcc4d6dd6ef2e9fc9190a250565b6151b0806200077783390190565b803562000274816200075d565b92915050565b600082601f8301126200028b578081fd5b8135620002a26200029c826200073c565b62000714565b818152915060208083019084810181840286018201871015620002c457600080fd5b60005b84811015620002f0578135620002dd816200075d565b84529282019290820190600101620002c7565b505050505092915050565b600082601f8301126200030c578081fd5b81356200031d6200029c826200073c565b8181529150602080830190848101818402860182018710156200033f57600080fd5b60005b84811015620002f057813562000358816200075d565b8452928201929082019060010162000342565b600082601f8301126200037c578081fd5b81356200038d6200029c826200073c565b818152915060208083019084810181840286018201871015620003af57600080fd5b60005b84811015620002f057813584529282019290820190600101620003b2565b600082601f830112620003e1578081fd5b813567ffffffffffffffff811115620003f8578182fd5b6200040d601f8201601f191660200162000714565b91508082528360208285010111156200042557600080fd5b8060208401602084013760009082016020015292915050565b60006020828403121562000450578081fd5b81356200045d816200075d565b9392505050565b600080600080600080600080610100898b03121562000481578384fd5b883567ffffffffffffffff8082111562000499578586fd5b620004a78c838d01620003d0565b995060208b0135915080821115620004bd578586fd5b620004cb8c838d01620003d0565b985060408b0135915080821115620004e1578586fd5b620004ef8c838d01620002fb565b975060608b013591508082111562000505578586fd5b620005138c838d016200036b565b965060808b0135955060a08b013591508082111562000530578485fd5b506200053f8b828c016200027a565b93505060c08901359150620005588a60e08b0162000267565b90509295985092959890939650565b6001600160a01b03169052565b6000815180845260208085019450808401835b83811015620005ae5781516001600160a01b03168752958201959082019060010162000587565b509495945050505050565b60008151808452815b81811015620005e057602081850181015186830182015201620005c2565b81811115620005f25782602083870101525b50601f01601f19169290920160200192915050565b6001600160a01b0391909116815260200190565b901515815260200190565b6001600160a01b038c1681526101606020808301829052600091906200064f8483018f620005b9565b9150838203604085015262000665828e620005b9565b915083820360608501526200067b828d62000574565b84810360808601528b51808252828d01935090820190845b81811015620006b15784518352938301939183019160010162000693565b50508a60a086015284810360c0860152620006cd818b62000574565b93505050508560e08301528461010083015283610120830152620006f661014083018462000567565b9c9b505050505050505050505050565b918252602082015260400190565b60405181810167ffffffffffffffff811182821017156200073457600080fd5b604052919050565b600067ffffffffffffffff82111562000753578081fd5b5060209081020190565b6001600160a01b03811681146200077357600080fd5b5056fe61052060408190527f6e71edae12b1b97f4d1f60370fef10105fa2faae0126114a169c64845d6126c961012052600880546001600160a01b0319167312828e3fc80e876fd5a471d10be521493404d1c41790819055639c1ea71b60e01b82526001600160a01b031690639c1ea71b906105249060009060048186803b1580156200008857600080fd5b505afa1580156200009d573d6000803e3d6000fd5b505050506040513d6000823e601f3d908101601f19168201604052620000c7919081019062000d2f565b8051620000dd9160099160209091019062000a64565b50348015620000eb57600080fd5b50604051620051b0380380620051b08339810160408190526200010e9162000d86565b8a8a8a8a88888888888888888888888888888886516002146200013357600162000136565b60025b6040805180820190915260018152603160f81b6020808301918252336080526001600160601b0319606087901b1660a0528c51908d0190812060c0529151902060e0527f8b73c3c69bb8fe3d512ecc4cf759cc79239f7b179b0ffacaa9a75d522b39400f610100528a518b918b918b918b918b918b918b918b91849184918b918b91620001c69160039162000ab4565b508051620001dc90600490602084019062000ab4565b50620001f49150506276a700831115610194620008b6565b6200020862278d00821115610195620008b6565b42909101610140819052016101605285516200022a906002111560c8620008b6565b6200024260088751111560c9620008b660201b60201c565b6200024d84620008cb565b6040516309b2760f60e01b81526000906001600160a01b038c16906309b2760f906200027e908d9060040162000f90565b602060405180830381600087803b1580156200029957600080fd5b505af1158015620002ae573d6000803e3d6000fd5b505050506040513d601f19601f82011682018060405250810190620002d4919062000d6d565b604051633354e3e960e11b81529091506001600160a01b038c16906366a9c7d290620003099084908b908b9060040162000ef4565b600060405180830381600087803b1580156200032457600080fd5b505af115801562000339573d6000803e3d6000fd5b505088516001600160601b031960608f901b16610180526101a08490526101c0819052915050806200036d57600062000384565b876000815181106200037b57fe5b60200260200101515b60601b6001600160601b0319166101e05260018111620003a6576000620003bd565b87600181518110620003b457fe5b60200260200101515b60601b6001600160601b0319166102005260028111620003df576000620003f6565b87600281518110620003ed57fe5b60200260200101515b60601b6001600160601b0319166102205260038111620004185760006200042f565b876003815181106200042657fe5b60200260200101515b60601b6001600160601b03191661024052600481116200045157600062000468565b876004815181106200045f57fe5b60200260200101515b60601b6001600160601b03191661026052600581116200048a576000620004a1565b876005815181106200049857fe5b60200260200101515b60601b6001600160601b0319166102805260068111620004c3576000620004da565b87600681518110620004d157fe5b60200260200101515b60601b6001600160601b0319166102a05260078111620004fc57600062000513565b876007815181106200050a57fe5b60200260200101515b60601b6001600160601b0319166102c052806200053257600062000558565b62000558886000815181106200054457fe5b60200260200101516200093a60201b60201c565b6102e052600181116200056d5760006200057f565b6200057f886001815181106200054457fe5b610300526002811162000594576000620005a6565b620005a6886002815181106200054457fe5b6103205260038111620005bb576000620005cd565b620005cd886003815181106200054457fe5b6103405260048111620005e2576000620005f4565b620005f4886004815181106200054457fe5b6103605260058111620006095760006200061b565b6200061b886005815181106200054457fe5b61038052600681116200063057600062000642565b62000642886006815181106200054457fe5b6103a052600781116200065757600062000669565b62000669886007815181106200054457fe5b6103c081815250505050505050505050505050505050505050505050505050505050505050508561050081815250506000885190506000806000805b848160ff161015620007245760008c8260ff1681518110620006c357fe5b60200260200101519050620006eb662386f26fc1000082101561012e620008b660201b60201c565b620007058186620009dc60201b62000cff1790919060201c565b9450828111156200071a578160ff1693508092505b50600101620006a5565b506200073d670de0b6b3a76400008414610134620008b6565b6103e0829052836200075157600062000768565b8a6000815181106200075f57fe5b60200260200101515b61040052600184116200077d57600062000794565b8a6001815181106200078b57fe5b60200260200101515b6104205260028411620007a9576000620007c0565b8a600281518110620007b757fe5b60200260200101515b6104405260038411620007d5576000620007ec565b8a600381518110620007e357fe5b60200260200101515b61046052600484116200080157600062000818565b8a6004815181106200080f57fe5b60200260200101515b61048052600584116200082d57600062000844565b8a6005815181106200083b57fe5b60200260200101515b6104a052600684116200085957600062000870565b8a6006815181106200086757fe5b60200260200101515b6104c05260078411620008855760006200089c565b8a6007815181106200089357fe5b60200260200101515b6104e052506200101a9d5050505050505050505050505050565b81620008c757620008c781620009f9565b5050565b620008e064e8d4a5100082101560cb620008b6565b620008f867016345785d8a000082111560ca620008b6565b60078190556040517fa9ba3ffe0b6c366b81232caab38605a0699ad5398d6cce76f91ee809e322dafc906200092f90839062000fa5565b60405180910390a150565b600080826001600160a01b031663313ce5676040518163ffffffff1660e01b815260040160206040518083038186803b1580156200097757600080fd5b505afa1580156200098c573d6000803e3d6000fd5b505050506040513d601f19601f82011682018060405250810190620009b2919062000ed1565b60ff1690506000620009d160128362000a4c60201b62000d111760201c565b600a0a949350505050565b6000828201620009f08482101583620008b6565b90505b92915050565b62461bcd60e51b6000908152602060045260076024526642414c23000030600a808404818106603090810160081b95839006959095019082900491820690940160101b939093010160c81b604452606490fd5b600062000a5e838311156001620008b6565b50900390565b82805482825590600052602060002090810192821562000aa2579160200282015b8281111562000aa257825182559160200191906001019062000a85565b5062000ab092915062000b26565b5090565b828054600181600116156101000203166002900490600052602060002090601f016020900481019282601f1062000af757805160ff191683800117855562000aa2565b8280016001018555821562000aa2579182018281111562000aa257825182559160200191906001019062000a85565b5b8082111562000ab0576000815560010162000b27565b8051620009f38162001001565b600082601f83011262000b5b578081fd5b815162000b7262000b6c8262000fd5565b62000fae565b81815291506020808301908481018184028601820187101562000b9457600080fd5b60005b8481101562000bc057815162000bad8162001001565b8452928201929082019060010162000b97565b505050505092915050565b600082601f83011262000bdc578081fd5b815162000bed62000b6c8262000fd5565b81815291506020808301908481018184028601820187101562000c0f57600080fd5b60005b8481101562000bc057815162000c288162001001565b8452928201929082019060010162000c12565b600082601f83011262000c4c578081fd5b815162000c5d62000b6c8262000fd5565b81815291506020808301908481018184028601820187101562000c7f57600080fd5b60005b8481101562000bc05781518452928201929082019060010162000c82565b600082601f83011262000cb1578081fd5b81516001600160401b0381111562000cc7578182fd5b602062000cdd601f8301601f1916820162000fae565b9250818352848183860101111562000cf457600080fd5b60005b8281101562000d1457848101820151848201830152810162000cf7565b8281111562000d265760008284860101525b50505092915050565b60006020828403121562000d41578081fd5b81516001600160401b0381111562000d57578182fd5b62000d658482850162000c3b565b949350505050565b60006020828403121562000d7f578081fd5b5051919050565b60008060008060008060008060008060006101608c8e03121562000da8578687fd5b62000db48d8d62000b3d565b60208d0151909b506001600160401b0381111562000dd0578788fd5b62000dde8e828f0162000ca0565b60408e0151909b5090506001600160401b0381111562000dfc578788fd5b62000e0a8e828f0162000ca0565b60608e0151909a5090506001600160401b0381111562000e28578788fd5b62000e368e828f0162000bcb565b60808e015190995090506001600160401b0381111562000e54578788fd5b62000e628e828f0162000c3b565b60a08e015160c08f0151919950975090506001600160401b0381111562000e87578586fd5b62000e958e828f0162000b4a565b95505060e08c015193506101008c015192506101208c0151915062000ebf8d6101408e0162000b3d565b90509295989b509295989b9093969950565b60006020828403121562000ee3578081fd5b815160ff81168114620009f0578182fd5b60006060820185835260206060818501528186518084526080860191508288019350845b8181101562000f405762000f2d855162000ff5565b8352938301939183019160010162000f18565b505084810360408601528551808252908201925081860190845b8181101562000f825762000f6f835162000ff5565b8552938301939183019160010162000f5a565b509298975050505050505050565b602081016003831062000f9f57fe5b91905290565b90815260200190565b6040518181016001600160401b038111828210171562000fcd57600080fd5b604052919050565b60006001600160401b0382111562000feb578081fd5b5060209081020190565b6001600160a01b031690565b6001600160a01b03811681146200101757600080fd5b50565b60805160a05160601c60c05160e051610100516101205161014051610160516101805160601c6101a0516101c0516101e05160601c6102005160601c6102205160601c6102405160601c6102605160601c6102805160601c6102a05160601c6102c05160601c6102e05161030051610320516103405161036051610380516103a0516103c0516103e05161040051610420516104405161046051610480516104a0516104c0516104e05161050051613fd5620011db600039806105d15250806124c75250806124845250806124415250806123fe5250806123bb5250806123785250806123355250806122f2525050806116625280611b2e52508061161f5280611acd5250806115dc5280611a6c5250806115995280611a0b52508061155652806119aa52508061151352806119495250806114d052806118e852508061147f5280611887525080611af3525080611a92525080611a315250806119d052508061196f52508061190e5250806118ad52508061184c52508061108f525080610622525080610873525080610e7e525080610e5a525080610a3b525080610f81525080610fc3525080610fa252508061084f5250806107d95250613fd56000f3fe608060405234801561001057600080fd5b50600436106101fb5760003560e01c806374f3b0091161011a5780639d2c110c116100ad578063d5c096c41161007c578063d5c096c414610407578063d73dd6231461041a578063dd62ed3e1461042d578063fbd3a18314610440578063fe776dd014610448576101fb565b80639d2c110c146103c6578063a9059cbb146103d9578063aaabadc5146103ec578063d505accf146103f4576101fb565b8063893d20e8116100e9578063893d20e81461038e5780638d928af8146103a35780639462aaa4146103ab57806395d89b41146103be576101fb565b806374f3b009146103345780637ecebe0014610355578063851c1bb31461036857806387ec68171461037b576101fb565b80633644e515116101925780636028bfd4116101615780636028bfd4146102da578063618b6a86146102fb578063661884631461030e57806370a0823114610321576101fb565b80633644e515146102af57806338e9922e146102b757806338fff2d0146102ca57806355c67628146102d2576101fb565b80631c0de051116101ce5780631c0de0511461026857806323b872dd1461027f5780632a665b2314610292578063313ce5671461029a576101fb565b806306fdde0314610200578063095ea7b31461021e57806316c38b3c1461023e57806318160ddd14610253575b600080fd5b61020861045b565b6040516102159190613e8d565b60405180910390f35b61023161022c36600461376f565b6104f2565b6040516102159190613d99565b61025161024c366004613897565b610509565b005b61025b61051d565b6040516102159190613dbc565b610270610523565b60405161021593929190613da4565b61023161028d3660046136ba565b61054c565b61025b6105cf565b6102a26105f3565b6040516102159190613f07565b61025b6105f8565b6102516102c5366004613c64565b610607565b61025b610620565b61025b610644565b6102ed6102e83660046138cf565b61064a565b604051610215929190613eee565b610251610309366004613a0f565b610681565b61023161031c36600461376f565b61069f565b61025b61032f366004613666565b6106f9565b6103476103423660046138cf565b610718565b604051610215929190613d74565b61025b610363366004613666565b6107ba565b61025b6103763660046139cb565b6107d5565b6102ed6103893660046138cf565b610827565b61039661084d565b6040516102159190613d60565b610396610871565b61025b6103b9366004613666565b610895565b6102086108a7565b61025b6103d4366004613b69565b610908565b6102316103e736600461376f565b6109ef565b6103966109fc565b6102516104023660046136fa565b610a06565b6103476104153660046138cf565b610b4f565b61023161042836600461376f565b610c71565b61025b61043b366004613682565b610ca7565b610396610cd2565b61025b610456366004613c64565b610ce1565b60038054604080516020601f60026000196101006001881615020190951694909404938401819004810282018101909252828152606093909290918301828280156104e75780601f106104bc576101008083540402835291602001916104e7565b820191906000526020600020905b8154815290600101906020018083116104ca57829003601f168201915b505050505090505b90565b60006104ff338484610d27565b5060015b92915050565b610511610d8f565b61051a81610dbd565b50565b60025490565b6000806000610530610e3b565b15925061053b610e58565b9150610545610e7c565b9050909192565b6001600160a01b0383166000818152600160209081526040808320338085529252822054919261058a9114806105825750838210155b610197610ea0565b610595858585610eae565b336001600160a01b038616148015906105b057506000198114155b156105c2576105c28533858403610d27565b60019150505b9392505050565b7f000000000000000000000000000000000000000000000000000000000000000081565b601290565b6000610602610f7d565b905090565b61060f610d8f565b61061761101a565b61051a8161102f565b7f000000000000000000000000000000000000000000000000000000000000000090565b60075490565b60006060610660865161065b61108d565b6110b1565b610675898989898989896110be61115c6111c2565b97509795505050505050565b610689610d8f565b61069161101a565b61069b82826112e4565b5050565b3360009081526001602090815260408083206001600160a01b03861684529091528120548083106106db576106d633856000610d27565b6106ef565b6106ef33856106ea8487610d11565b610d27565b5060019392505050565b6001600160a01b0381166000908152602081905260409020545b919050565b60608088610742610727610871565b6001600160a01b0316336001600160a01b03161460cd610ea0565b61075761074d610620565b82146101f4610ea0565b6060610761611424565b905061076d88826116a0565b60006060806107818e8e8e8e8e8e8e6110be565b9250925092506107918d84611701565b61079b828561115c565b6107a5818561115c565b909550935050505b5097509795505050505050565b6001600160a01b031660009081526005602052604090205490565b60007f00000000000000000000000000000000000000000000000000000000000000008260405160200161080a929190613d1d565b604051602081830303815290604052805190602001209050919050565b60006060610838865161065b61108d565b610675898989898989896117946117e76111c2565b7f000000000000000000000000000000000000000000000000000000000000000090565b7f000000000000000000000000000000000000000000000000000000000000000090565b600a6020526000908152604090205481565b60048054604080516020601f60026000196101006001881615020190951694909404938401819004810282018101909252828152606093909290918301828280156104e75780601f106104bc576101008083540402835291602001916104e7565b6000806109188560200151611848565b905060006109298660400151611848565b905060008651600181111561093a57fe5b14156109a05761094d8660600151611b5d565b606087015261095c8583611b81565b94506109688482611b81565b9350610978866060015183611b81565b6060870152600061098a878787611b8d565b90506109968183611c38565b93505050506105c8565b6109aa8583611b81565b94506109b68482611b81565b93506109c6866060015182611b81565b606087015260006109d8878787611c44565b90506109e48184611ce7565b905061099681611cf3565b60006104ff338484610eae565b6000610602611d0a565b610a148442111560d1610ea0565b6001600160a01b0387166000908152600560209081526040808320549051909291610a6b917f0000000000000000000000000000000000000000000000000000000000000000918c918c918c9188918d9101613de4565b6040516020818303038152906040528051906020012090506000610a8e82611d84565b9050600060018288888860405160008152602001604052604051610ab59493929190613e6f565b6020604051602081039080840390855afa158015610ad7573d6000803e3d6000fd5b5050604051601f1901519150610b1990506001600160a01b03821615801590610b1157508b6001600160a01b0316826001600160a01b0316145b6101f8610ea0565b6001600160a01b038b166000908152600560205260409020600185019055610b428b8b8b610d27565b5050505050505050505050565b60608088610b5e610727610871565b610b6961074d610620565b6060610b73611424565b9050610b7d61051d565b610c225760006060610b918d8d8d8a611da0565b91509150610ba6620f424083101560cc610ea0565b610bb46000620f4240611eed565b610bc38b620f42408403611eed565b610bcd81846117e7565b80610bd661108d565b6001600160401b0381118015610beb57600080fd5b50604051908082528060200260200182016040528015610c15578160200160208202803683370190505b50955095505050506107ad565b610c2c88826116a0565b6000606080610c408e8e8e8e8e8e8e611794565b925092509250610c508c84611eed565b610c5a82856117e7565b610c64818561115c565b90955093506107ad915050565b3360008181526001602090815260408083206001600160a01b038716845290915281205490916104ff9185906106ea9086610cff565b6001600160a01b03918216600090815260016020908152604080832093909416825291909152205490565b6008546001600160a01b031681565b60098181548110610cee57fe5b600091825260209091200154905081565b60008282016105c88482101583610ea0565b6000610d21838311156001610ea0565b50900390565b6001600160a01b0380841660008181526001602090815260408083209487168084529490915290819020849055517f8c5be1e5ebec7d5bd14f71427d1e84f3dd0314c0f7b2291e5b200ac8c7c3b92590610d82908590613dbc565b60405180910390a3505050565b6000610da66000356001600160e01b0319166107d5565b905061051a610db58233611f83565b610191610ea0565b8015610ddd57610dd8610dce610e58565b4210610193610ea0565b610df2565b610df2610de8610e7c565b42106101a9610ea0565b6006805460ff19168215151790556040517f9e3a5e37224532dea67b89face185703738a228a6e8a23dee546960180d3be6490610e30908390613d99565b60405180910390a150565b6000610e45610e7c565b42118061060257505060065460ff161590565b7f000000000000000000000000000000000000000000000000000000000000000090565b7f000000000000000000000000000000000000000000000000000000000000000090565b8161069b5761069b81612073565b6001600160a01b038316600090815260208190526040902054610ed682821015610196610ea0565b610eed6001600160a01b0384161515610199610ea0565b6001600160a01b03808516600090815260208190526040808220858503905591851681522054610f1d9083610cff565b6001600160a01b0380851660008181526020819052604090819020939093559151908616907fddf252ad1be2c89b69c2b068fc378daa952ba7f163c4a11628f55a4df523b3ef90610f6f908690613dbc565b60405180910390a350505050565b60007f00000000000000000000000000000000000000000000000000000000000000007f00000000000000000000000000000000000000000000000000000000000000007f0000000000000000000000000000000000000000000000000000000000000000610fea6120c6565b30604051602001610fff959493929190613e18565b60405160208183030381529060405280519060200120905090565b61102d611025610e3b565b610192610ea0565b565b61104264e8d4a5100082101560cb610ea0565b61105867016345785d8a000082111560ca610ea0565b60078190556040517fa9ba3ffe0b6c366b81232caab38605a0699ad5398d6cce76f91ee809e322dafc90610e30908390613dbc565b7f000000000000000000000000000000000000000000000000000000000000000090565b61069b8183146067610ea0565b60006060806110cb610e3b565b156110ed576110d9856120ca565b90506110e88782610d1161222c565b611138565b6110f561108d565b6001600160401b038111801561110a57600080fd5b50604051908082528060200260200182016040528015611134578160200160208202803683370190505b5090505b61114a87611144612297565b866124f3565b90935091509750975097945050505050565b60005b61116761108d565b8110156111bd5761119e83828151811061117d57fe5b602002602001015183838151811061119157fe5b6020026020010151612541565b8382815181106111aa57fe5b602090810291909101015260010161115f565b505050565b333014611280576000306001600160a01b03166000366040516111e6929190613d35565b6000604051808303816000865af19150503d8060008114611223576040519150601f19603f3d011682016040523d82523d6000602084013e611228565b606091505b50509050806000811461123757fe5b60046000803e6000516001600160e01b0319166343adbafb60e01b8114611262573d6000803e3d6000fd5b506020600460003e604060205260243d03602460403e601c3d016000f35b606061128a611424565b905061129687826116a0565b600060606112ad8c8c8c8c8c8c8c8c63ffffffff16565b50915091506112c081848663ffffffff16565b8051601f1982018390526343adbafb603f1983015260200260231982016044820181fd5b60006112ee610620565b905060006112fa610871565b6001600160a01b031663b05f8e4883866040518363ffffffff1660e01b8152600401611327929190613e44565b60806040518083038186803b15801561133f57600080fd5b505afa158015611353573d6000803e3d6000fd5b505050506040513d601f19601f820116820180604052508101906113779190613c7c565b604051632d27ee3560e21b81529094506001600160a01b038516935063b49fb8d492506113ab915085908790600401613e5b565b600060405180830381600087803b1580156113c557600080fd5b505af11580156113d9573d6000803e3d6000fd5b50505050836001600160a01b03167f8442f1ccd79c20a79ecc59bafacbfd0b5fd78298b00ce09f7efa6a1d57a4dfea846040516114169190613ee0565b60405180910390a250505050565b6060600061143061108d565b90506060816001600160401b038111801561144a57600080fd5b50604051908082528060200260200182016040528015611474578160200160208202803683370190505b50905081156114bc577f0000000000000000000000000000000000000000000000000000000000000000816000815181106114ab57fe5b6020026020010181815250506114c5565b91506104ef9050565b60018211156114bc577f0000000000000000000000000000000000000000000000000000000000000000816001815181106114fc57fe5b60200260200101818152505060028211156114bc577f00000000000000000000000000000000000000000000000000000000000000008160028151811061153f57fe5b60200260200101818152505060038211156114bc577f00000000000000000000000000000000000000000000000000000000000000008160038151811061158257fe5b60200260200101818152505060048211156114bc577f0000000000000000000000000000000000000000000000000000000000000000816004815181106115c557fe5b60200260200101818152505060058211156114bc577f00000000000000000000000000000000000000000000000000000000000000008160058151811061160857fe5b60200260200101818152505060068211156114bc577f00000000000000000000000000000000000000000000000000000000000000008160068151811061164b57fe5b60200260200101818152505060078211156114bc577f00000000000000000000000000000000000000000000000000000000000000008160078151811061168e57fe5b60200260200101818152505091505090565b60005b6116ab61108d565b8110156111bd576116e28382815181106116c157fe5b60200260200101518383815181106116d557fe5b6020026020010151612561565b8382815181106116ee57fe5b60209081029190910101526001016116a3565b6001600160a01b03821660009081526020819052604090205461172982821015610196610ea0565b6001600160a01b038316600090815260208190526040902082820390556002546117539083610d11565b6002556040516000906001600160a01b038516907fddf252ad1be2c89b69c2b068fc378daa952ba7f163c4a11628f55a4df523b3ef90610d82908690613dbc565b60006060806117a161101a565b60606117ac866120ca565b90506117bb8882610d1161222c565b600060606117d18a6117cb612297565b89612585565b909e909d50929b50919950505050505050505050565b60005b6117f261108d565b8110156111bd5761182983828151811061180857fe5b602002602001015183838151811061181c57fe5b60200260200101516125c0565b83828151811061183557fe5b60209081029190910101526001016117ea565b60007f00000000000000000000000000000000000000000000000000000000000000006001600160a01b0316826001600160a01b031614156118ab57507f0000000000000000000000000000000000000000000000000000000000000000610713565b7f00000000000000000000000000000000000000000000000000000000000000006001600160a01b0316826001600160a01b0316141561190c57507f0000000000000000000000000000000000000000000000000000000000000000610713565b7f00000000000000000000000000000000000000000000000000000000000000006001600160a01b0316826001600160a01b0316141561196d57507f0000000000000000000000000000000000000000000000000000000000000000610713565b7f00000000000000000000000000000000000000000000000000000000000000006001600160a01b0316826001600160a01b031614156119ce57507f0000000000000000000000000000000000000000000000000000000000000000610713565b7f00000000000000000000000000000000000000000000000000000000000000006001600160a01b0316826001600160a01b03161415611a2f57507f0000000000000000000000000000000000000000000000000000000000000000610713565b7f00000000000000000000000000000000000000000000000000000000000000006001600160a01b0316826001600160a01b03161415611a9057507f0000000000000000000000000000000000000000000000000000000000000000610713565b7f00000000000000000000000000000000000000000000000000000000000000006001600160a01b0316826001600160a01b03161415611af157507f0000000000000000000000000000000000000000000000000000000000000000610713565b7f00000000000000000000000000000000000000000000000000000000000000006001600160a01b0316826001600160a01b03161415611b5257507f0000000000000000000000000000000000000000000000000000000000000000610713565b610713610135612073565b600080611b75600754846125f390919063ffffffff16565b90506105c88382610d11565b60006105c88383612561565b6000611b9761101a565b611c3083838660600151600860009054906101000a90046001600160a01b03166001600160a01b0316639c1ea71b6040518163ffffffff1660e01b815260040160006040518083038186803b158015611bef57600080fd5b505afa158015611c03573d6000803e3d6000fd5b505050506040513d6000823e601f3d908101601f19168201604052611c2b9190810190613865565b612637565b949350505050565b60006105c88383612541565b6000611c4e61101a565b611c3083838660600151600860009054906101000a90046001600160a01b03166001600160a01b0316639c1ea71b6040518163ffffffff1660e01b815260040160006040518083038186803b158015611ca657600080fd5b505afa158015611cba573d6000803e3d6000fd5b505050506040513d6000823e601f3d908101601f19168201604052611ce29190810190613865565b6126a3565b60006105c883836125c0565b6000610503611d036007546126ed565b8390612713565b6000611d14610871565b6001600160a01b031663aaabadc56040518163ffffffff1660e01b815260040160206040518083038186803b158015611d4c57600080fd5b505afa158015611d60573d6000803e3d6000fd5b505050506040513d601f19601f8201168201806040525081019061060291906139f3565b6000611d8e610f7d565b8260405160200161080a929190613d45565b60006060611dac61101a565b6000611db78461275e565b9050611dd26000826002811115611dca57fe5b1460ce610ea0565b6060611ddd85612774565b9050611df1611dea61108d565b82516110b1565b611e0281611dfd611424565b6116a0565b606081516001600160401b0381118015611e1b57600080fd5b50604051908082528060200260200182016040528015611e45578160200160208202803683370190505b50905060005b8251811015611e75576000828281518110611e6257fe5b6020908102919091010152600101611e4b565b506000611edb8284611e8561051d565b6009805480602002602001604051908101604052809291908181526020018280548015611ed157602002820191906000526020600020905b815481526020019060010190808311611ebd575b505050505061278a565b95509193505050505b94509492505050565b6001600160a01b038216600090815260208190526040902054611f109082610cff565b6001600160a01b038316600090815260208190526040902055600254611f369082610cff565b6002556040516001600160a01b038316906000907fddf252ad1be2c89b69c2b068fc378daa952ba7f163c4a11628f55a4df523b3ef90611f77908590613dbc565b60405180910390a35050565b600073ba1ba1ba1ba1ba1ba1ba1ba1ba1ba1ba1ba1ba1b611fa261084d565b6001600160a01b031614158015611fbd5750611fbd83612cbe565b15611fe557611fca61084d565b6001600160a01b0316336001600160a01b0316149050610503565b611fed611d0a565b6001600160a01b0316639be2a8848484306040518463ffffffff1660e01b815260040161201c93929190613dc5565b60206040518083038186803b15801561203457600080fd5b505afa158015612048573d6000803e3d6000fd5b505050506040513d601f19601f8201168201806040525081019061206c91906138b3565b9050610503565b62461bcd60e51b6000908152602060045260076024526642414c23000030600a808404818106603090810160081b95839006959095019082900491820690940160101b939093010160c81b604452606490fd5b4690565b6060806060806120d8610871565b6001600160a01b031663f94d46686120ee610620565b6040518263ffffffff1660e01b815260040161210a9190613dbc565b60006040518083038186803b15801561212257600080fd5b505afa158015612136573d6000803e3d6000fd5b505050506040513d6000823e601f3d908101601f1916820160405261215e919081019061379a565b5050905060005b6009548110156121c757600a600083838151811061217f57fe5b60200260200101516001600160a01b03166001600160a01b03168152602001908152602001600020548382815181106121b457fe5b6020908102919091010152600101612165565b5061222382600980548060200260200160405190810160405280929190818152602001828054801561221857602002820191906000526020600020905b815481526020019060010190808311612204575b505050505087612cf0565b95945050505050565b60005b61223761108d565b8110156122915761227284828151811061224d57fe5b602002602001015184838151811061226157fe5b60200260200101518463ffffffff16565b84828151811061227e57fe5b602090810291909101015260010161222f565b50505050565b606060006122a361108d565b90506060816001600160401b03811180156122bd57600080fd5b506040519080825280602002602001820160405280156122e7578160200160208202803683370190505b50905081156114bc577f00000000000000000000000000000000000000000000000000000000000000008160008151811061231e57fe5b60200260200101818152505060018211156114bc577f00000000000000000000000000000000000000000000000000000000000000008160018151811061236157fe5b60200260200101818152505060028211156114bc577f0000000000000000000000000000000000000000000000000000000000000000816002815181106123a457fe5b60200260200101818152505060038211156114bc577f0000000000000000000000000000000000000000000000000000000000000000816003815181106123e757fe5b60200260200101818152505060048211156114bc577f00000000000000000000000000000000000000000000000000000000000000008160048151811061242a57fe5b60200260200101818152505060058211156114bc577f00000000000000000000000000000000000000000000000000000000000000008160058151811061246d57fe5b60200260200101818152505060068211156114bc577f0000000000000000000000000000000000000000000000000000000000000000816006815181106124b057fe5b60200260200101818152505060078211156114bc577f00000000000000000000000000000000000000000000000000000000000000008160078151811061168e57fe5b6000606060006125028461275e565b9050600181600281111561251257fe5b141561252c576125228685612df2565b9250925050612539565b612522868686612e75565b505b935093915050565b60006125508215156004610ea0565b81838161255957fe5b049392505050565b60008282026105c884158061257e57508385838161257b57fe5b04145b6003610ea0565b6000606060006125948461275e565b905060018160028111156125a457fe5b14156125b557612522868686612f2c565b612537610136612073565b60006125cf8215156004610ea0565b826125dc57506000610503565b8160018403816125e857fe5b046001019050610503565b600082820261260d84158061257e57508385838161257b57fe5b8061261c576000915050610503565b670de0b6b3a764000060001982015b04600101915050610503565b60008261264657506000611c30565b600061266e83878151811061265757fe5b6020026020010151856125f390919063ffffffff16565b9050600061269884878151811061268157fe5b60200260200101518361271390919063ffffffff16565b979650505050505050565b6000826126b257506000611c30565b60006126c383868151811061265757fe5b905060006126988488815181106126d657fe5b602002602001015183612f7b90919063ffffffff16565b6000670de0b6b3a76400008210612705576000610503565b50670de0b6b3a76400000390565b60006127228215156004610ea0565b8261272f57506000610503565b670de0b6b3a7640000838102906127529085838161274957fe5b04146005610ea0565b82600182038161262b57fe5b6000818060200190518101906105039190613a8c565b6060818060200190518101906105c89190613b1b565b600082670de0b6b3a764000014156127ab5750670de0b6b3a7640000611c30565b6127b36134e9565b6127bb61351f565b6127c361354e565b87516000816001600160401b03811180156127dd57600080fd5b50604051908082528060200260200182016040528015612807578160200160208202803683370190505b50826001600160401b038111801561281e57600080fd5b50604051908082528060200260200182016040528015612848578160200160208202803683370190505b50600060a088018190526060880181905260208801919091529086525b82811015612951576128a688828151811061287c57fe5b60200260200101518c838151811061289057fe5b60200260200101516125f390919063ffffffff16565b86518051839081106128b457fe5b602090810291909101015285518051829081106128cd57fe5b60200260200101518660600181815101915081815250506129078882815181106128f357fe5b60200260200101518b838151811061289057fe5b8660200151828151811061291757fe5b6020026020010181815250508560200151818151811061293357fe5b602090810291909101015160a0870180519091019052600101612865565b5084606001518560a0015111156129aa57606085015115612999576129918861298b87606001518860a00151612f7b90919063ffffffff16565b906125f3565b90508061299d565b5086805b509450611c309350505050565b84606001518560a0015114156129c7578795505050505050611c30565b816064816129d157fe5b046080850152816001600160401b03811180156129ed57600080fd5b50604051908082528060200260200182016040528015612a17578160200160208202803683370190505b506020850152816001600160401b0381118015612a3357600080fd5b50604051908082528060200260200182016040528015612a5d578160200160208202803683370190505b508452816001600160401b0381118015612a7657600080fd5b50604051908082528060200260200182016040528015612aa0578160200160208202803683370190505b5060408501526000805b83811015612caf5786602001518181518110612ac257fe5b6020026020010151600014612ca75786518051612b0a91612b029184908110612ae757fe5b60200260200101518960600151612f7b90919063ffffffff16565b606490612f7b565b8651805183908110612b1857fe5b60209081029190910101528551805182908110612b3157fe5b602002602001015186608001511015612b805760808601518651805183908110612b5757fe5b60200260200101510386602001518281518110612b7057fe5b6020026020010181815250612bb8565b8551805182908110612b8e57fe5b602002602001015186608001510386602001518281518110612bac57fe5b60200260200101818152505b50612bf8612b0288602001518381518110612bcf57fe5b6020026020010151612bf28a60a001518b60600151610cff90919063ffffffff16565b90612f7b565b86604001518281518110612c0857fe5b602002602001018181525050612c3e86604001518281518110612c2757fe5b60200260200101518b612f7b90919063ffffffff16565b60408601526020860151805182908110612c5457fe5b6020026020010151600014612c9d57612c9186602001518281518110612c7657fe5b60200260200101518660400151612f7b90919063ffffffff16565b60408601805190910190525b8460400151820191505b600101612aaa565b509a9950505050505050505050565b6000612cd0631c74c91760e11b6107d5565b8214806105035750612ce86330c5b54360e11b6107d5565b909114919050565b6060612cfa6134e9565b60005b8451811015612d55576000612d41868381518110612d1757fe5b6020026020010151888481518110612d2b57fe5b6020026020010151612fc390919063ffffffff16565b606084018051909101905250600101612cfd565b50606084516001600160401b0381118015612d6f57600080fd5b50604051908082528060200260200182016040528015612d99578160200160208202803683370190505b509050612dd1612dca86600081518110612daf57fe5b60200260200101518460600151612f7b90919063ffffffff16565b8590612fc3565b81600081518110612dde57fe5b602090810291909101015295945050505050565b600060606000612e0184612fef565b90506060612e688683612e1261051d565b6009805480602002602001604051908101604052809291908181526020018280548015612e5e57602002820191906000526020600020905b815481526020019060010190808311612e4a575b5050505050613005565b9196919550909350505050565b60006060612e8161101a565b60606000612e8e8561324d565b91509150612e9f825161065b61108d565b612ea982876116a0565b6000612f0e8884612eb861051d565b6009805480602002602001604051908101604052809291908181526020018280548015612f0457602002820191906000526020600020905b815481526020019060010190808311612ef0575b5050505050613270565b509050612f1f8282111560cf610ea0565b9791965090945050505050565b60006060806000612f3c8561324d565b91509150612f52612f4b61108d565b83516110b1565b612f5c82876116a0565b6000612f6b8884611e8561051d565b9050612f1f8282101560d0610ea0565b6000612f8a8215156004610ea0565b82612f9757506000610503565b670de0b6b3a764000083810290612fb19085838161274957fe5b828181612fba57fe5b04915050610503565b6000828202612fdd84158061257e57508385838161257b57fe5b670de0b6b3a764000090049392505050565b6000818060200190518101906105c89190613aee565b606061300f6134e9565b61301761351f565b61301f61354e565b8751806001600160401b038111801561303757600080fd5b50604051908082528060200260200182016040528015613061578160200160208202803683370190505b50816001600160401b038111801561307857600080fd5b506040519080825280602002602001820160405280156130a2578160200160208202803683370190505b506000606087015260408601528452806001600160401b03811180156130c757600080fd5b506040519080825280602002602001820160405280156130f1578160200160208202803683370190505b5060208301899052835260005b8181101561315a576131158782815181106128f357fe5b855180518390811061312357fe5b6020908102919091010152845180518290811061313c57fe5b602090810291909101015160608601805190910190526001016130fe565b50602082015160009061316d9089612f7b565b905060608a516001600160401b038111801561318857600080fd5b506040519080825280602002602001820160405280156131b2578160200160208202803683370190505b50905060005b8b51811015612caf576131d5838860000151838151811061289057fe5b876040015182815181106131e557fe5b60200260200101818152505061322e89828151811061320057fe5b60200260200101518860400151838151811061321857fe5b6020026020010151612f7b90919063ffffffff16565b82828151811061323a57fe5b60209081029190910101526001016131b8565b60606000828060200190518101906132659190613aa8565b909590945092505050565b6000606061327c6134e9565b61328461351f565b61328c61354e565b8851806001600160401b03811180156132a457600080fd5b506040519080825280602002602001820160405280156132ce578160200160208202803683370190505b50816001600160401b03811180156132e557600080fd5b5060405190808252806020026020018201604052801561330f578160200160208202803683370190505b50600060808701819052606087015260408601528452806001600160401b038111801561333b57600080fd5b50604051908082528060200260200182016040528015613365578160200160208202803683370190505b506000602084018190529084525b818110156134215761338a88828151811061287c57fe5b855180518390811061339857fe5b602090810291909101015284518051829081106133b157fe5b60200260200101518560600181815101915081815250506133d78882815181106128f357fe5b856040015182815181106133e757fe5b6020026020010181815250508460400151818151811061340357fe5b60209081029190910101516080860180519091019052600101613373565b508360800151846060015114156134415787899550955050505050611ee4565b60005b818110156134d75761346485606001518660400151838151811061321857fe5b845180518390811061347257fe5b60200260200101818152505089818151811061348a57fe5b60200260200101516000146134cf576134c3846000015182815181106134ac57fe5b60200260200101518a6125f390919063ffffffff16565b60208401805190910190525b600101613444565b50506020015198969750505050505050565b6040518060c001604052806060815260200160608152602001606081526020016000815260200160008152602001600081525090565b6040518060a0016040528060608152602001606081526020016060815260200160608152602001600081525090565b6040518060800160405280600081526020016000815260200160008152602001600081525090565b803561050381613f5a565b600082601f830112613591578081fd5b81516135a461359f82613f3b565b613f15565b8181529150602080830190848101818402860182018710156135c557600080fd5b60005b848110156135e4578151845292820192908201906001016135c8565b505050505092915050565b600082601f8301126135ff578081fd5b81356001600160401b03811115613614578182fd5b613627601f8201601f1916602001613f15565b915080825283602082850101111561363e57600080fd5b8060208401602084013760009082016020015292915050565b80356002811061050357600080fd5b600060208284031215613677578081fd5b81356105c881613f5a565b60008060408385031215613694578081fd5b823561369f81613f5a565b915060208301356136af81613f5a565b809150509250929050565b6000806000606084860312156136ce578081fd5b83356136d981613f5a565b925060208401356136e981613f5a565b929592945050506040919091013590565b600080600080600080600060e0888a031215613714578485fd5b873561371f81613f5a565b9650602088013561372f81613f5a565b95506040880135945060608801359350608088013560ff81168114613752578384fd5b9699959850939692959460a0840135945060c09093013592915050565b60008060408385031215613781578182fd5b823561378c81613f5a565b946020939093013593505050565b6000806000606084860312156137ae578081fd5b83516001600160401b03808211156137c4578283fd5b818601915086601f8301126137d7578283fd5b81516137e561359f82613f3b565b80828252602080830192508086018b828387028901011115613805578788fd5b8796505b8487101561383057805161381c81613f5a565b845260019690960195928101928101613809565b508901519097509350505080821115613847578283fd5b5061385486828701613581565b925050604084015190509250925092565b600060208284031215613876578081fd5b81516001600160401b0381111561388b578182fd5b611c3084828501613581565b6000602082840312156138a8578081fd5b81356105c881613f6f565b6000602082840312156138c4578081fd5b81516105c881613f6f565b600080600080600080600060e0888a0312156138e9578081fd5b873596506020808901356138fc81613f5a565b9650604089013561390c81613f5a565b955060608901356001600160401b0380821115613927578384fd5b818b0191508b601f83011261393a578384fd5b813561394861359f82613f3b565b8082825285820191508585018f878886028801011115613966578788fd5b8795505b8386101561398857803583526001959095019491860191860161396a565b509850505060808b0135955060a08b0135945060c08b01359250808311156139ae578384fd5b50506139bc8a828b016135ef565b91505092959891949750929550565b6000602082840312156139dc578081fd5b81356001600160e01b0319811681146105c8578182fd5b600060208284031215613a04578081fd5b81516105c881613f5a565b6000808284036080811215613a22578283fd5b8335613a2d81613f5a565b92506060601f1982011215613a40578182fd5b50613a4b6060613f15565b6020840135613a5981613f8a565b81526040840135613a6981613f8a565b60208201526060840135613a7c81613f8a565b6040820152919491935090915050565b600060208284031215613a9d578081fd5b81516105c881613f7d565b600080600060608486031215613abc578081fd5b8351613ac781613f7d565b60208501519093506001600160401b03811115613ae2578182fd5b61385486828701613581565b60008060408385031215613b00578182fd5b8251613b0b81613f7d565b6020939093015192949293505050565b60008060408385031215613b2d578182fd5b8251613b3881613f7d565b60208401519092506001600160401b03811115613b53578182fd5b613b5f85828601613581565b9150509250929050565b600080600060608486031215613b7d578081fd5b83356001600160401b0380821115613b93578283fd5b8186019150610120808389031215613ba9578384fd5b613bb281613f15565b9050613bbe8884613657565b8152613bcd8860208501613576565b6020820152613bdf8860408501613576565b6040820152606083013560608201526080830135608082015260a083013560a0820152613c0f8860c08501613576565b60c0820152613c218860e08501613576565b60e08201526101008084013583811115613c39578586fd5b613c458a8287016135ef565b9183019190915250976020870135975060409096013595945050505050565b600060208284031215613c75578081fd5b5035919050565b60008060008060808587031215613c91578182fd5b8451935060208501519250604085015191506060850151613cb181613f5a565b939692955090935050565b6000815180845260208085019450808401835b83811015613ceb57815187529582019590820190600101613ccf565b509495945050505050565b80516001600160401b03908116835260208083015182169084015260409182015116910152565b9182526001600160e01b031916602082015260240190565b6000828483379101908152919050565b61190160f01b81526002810192909252602282015260420190565b6001600160a01b0391909116815260200190565b600060408252613d876040830185613cbc565b82810360208401526122238185613cbc565b901515815260200190565b92151583526020830191909152604082015260600190565b90815260200190565b9283526001600160a01b03918216602084015216604082015260600190565b9586526001600160a01b0394851660208701529290931660408501526060840152608083019190915260a082015260c00190565b9485526020850193909352604084019190915260608301526001600160a01b0316608082015260a00190565b9182526001600160a01b0316602082015260400190565b828152608081016105c86020830184613cf6565b93845260ff9290921660208401526040830152606082015260800190565b6000602080835283518082850152825b81811015613eb957858101830151858201604001528201613e9d565b81811115613eca5783604083870101525b50601f01601f1916929092016040019392505050565b606081016105038284613cf6565b600083825260406020830152611c306040830184613cbc565b60ff91909116815260200190565b6040518181016001600160401b0381118282101715613f3357600080fd5b604052919050565b60006001600160401b03821115613f50578081fd5b5060209081020190565b6001600160a01b038116811461051a57600080fd5b801515811461051a57600080fd5b6003811061051a57600080fd5b6001600160401b038116811461051a57600080fdfea2646970667358221220baf6fd4ffe8990d47753f628c5f2a101eab63b4e426ec329966f848143ce2a9d64736f6c63430007010033a26469706673582212202fd8543a0fd667cf3333dc7f0cb1b6ea25424d9501bea066c63e1768522dbbb264736f6c63430007010033",
  "immutableReferences": {
    "2447": [
      {
        "length": 32,
        "start": 348
      }
    ],
    "2517": [
      {
        "length": 32,
        "start": 214
      },
      {
        "length": 32,
        "start": 256
      }
    ]
  },
  "source": "// SPDX-License-Identifier: GPL-3.0-or-later\n// This program is free software: you can redistribute it and/or modify\n// it under the terms of the GNU General Public License as published by\n// the Free Software Foundation, either version 3 of the License, or\n// (at your option) any later version.\n\n// This program is distributed in the hope that it will be useful,\n// but WITHOUT ANY WARRANTY; without even the implied warranty of\n// MERCHANTABILITY or FITNESS FOR A PARTICULAR PURPOSE.  See the\n// GNU General Public License for more details.\n\n// You should have received a copy of the GNU General Public License\n// along with this program.  If not, see <http://www.gnu.org/licenses/>.\n\npragma solidity ^0.7.1;\npragma experimental ABIEncoderV2;\n\nimport \"@balancer-labs/v2-vault/contracts/interfaces/IVault.sol\";\n\nimport \"@balancer-labs/v2-pool-utils/contracts/factories/BasePoolFactory.sol\";\nimport \"@balancer-labs/v2-pool-utils/contracts/factories/FactoryWidePauseWindow.sol\";\n\nimport \"./StationPool.sol\";\n\ncontract StationPoolFactory is BasePoolFactory, FactoryWidePauseWindow {\n    constructor(IVault vault) BasePoolFactory(vault) {\n        // solhint-disable-previous-line no-empty-blocks\n    }\n\n    /**\n     * @dev Deploys a new `StationPool`.\n     */\n    function create(\n        string memory name,\n        string memory symbol,\n        IERC20[] memory tokens,\n        uint256[] memory valWeights,\n        uint256 amp,\n        address[] memory assetManagers,\n        uint256 swapFeePercentage,\n        address owner\n    ) external returns (address) {\n        (uint256 pauseWindowDuration, uint256 bufferPeriodDuration) = getPauseConfiguration();\n        swapFeePercentage = 1e12;\n        address pool = address(\n            new StationPool(\n                getVault(),\n                name,\n                symbol,\n                tokens,\n                valWeights,\n                amp,\n                assetManagers,\n                swapFeePercentage,\n                pauseWindowDuration,\n                bufferPeriodDuration,\n                owner\n            )\n        );\n        _register(pool);\n        return pool;\n    }\n}",
  "sourcePath": "/home/tatsu/Station/CrossAssetPaymentPool/contracts/StationPoolFactory.sol",
  "compiler": {
    "name": "solc",
    "version": "0.7.1+commit.f4a555be.Emscripten.clang"
  },
  "schemaVersion": "3.4.2",
  "updatedAt": "2021-08-19T23:37:50.215Z",
  "networkType": "ethereum",
  "devdoc": {
    "kind": "dev",
    "methods": {
      "create(string,string,address[],uint256[],uint256,address[],uint256,address)": {
        "details": "Deploys a new `StationPool`."
      },
      "getPauseConfiguration()": {
        "details": "Returns the current `TemporarilyPausable` configuration that will be applied to Pools created by this factory. `pauseWindowDuration` will decrease over time until it reaches zero, at which point both it and `bufferPeriodDuration` will be zero forever, meaning deployed Pools will not be pausable."
      },
      "getVault()": {
        "details": "Returns the Vault's address."
      },
      "isPoolFromFactory(address)": {
        "details": "Returns true if `pool` was created by this factory."
      }
    },
    "version": 1
  },
  "userdoc": {
    "kind": "user",
    "methods": {},
    "version": 1
  }
}