{
  "contractName": "TestWETH",
  "abi": [
    {
      "inputs": [
        {
          "internalType": "address",
          "name": "_admin",
          "type": "address"
        }
      ],
      "stateMutability": "nonpayable",
      "type": "constructor"
    },
    {
      "anonymous": false,
      "inputs": [
        {
          "indexed": true,
          "internalType": "address",
          "name": "src",
          "type": "address"
        },
        {
          "indexed": true,
          "internalType": "address",
          "name": "guy",
          "type": "address"
        },
        {
          "indexed": false,
          "internalType": "uint256",
          "name": "wad",
          "type": "uint256"
        }
      ],
      "name": "Approval",
      "type": "event"
    },
    {
      "anonymous": false,
      "inputs": [
        {
          "indexed": true,
          "internalType": "address",
          "name": "dst",
          "type": "address"
        },
        {
          "indexed": false,
          "internalType": "uint256",
          "name": "wad",
          "type": "uint256"
        }
      ],
      "name": "Deposit",
      "type": "event"
    },
    {
      "anonymous": false,
      "inputs": [
        {
          "indexed": true,
          "internalType": "bytes32",
          "name": "role",
          "type": "bytes32"
        },
        {
          "indexed": true,
          "internalType": "bytes32",
          "name": "previousAdminRole",
          "type": "bytes32"
        },
        {
          "indexed": true,
          "internalType": "bytes32",
          "name": "newAdminRole",
          "type": "bytes32"
        }
      ],
      "name": "RoleAdminChanged",
      "type": "event"
    },
    {
      "anonymous": false,
      "inputs": [
        {
          "indexed": true,
          "internalType": "bytes32",
          "name": "role",
          "type": "bytes32"
        },
        {
          "indexed": true,
          "internalType": "address",
          "name": "account",
          "type": "address"
        },
        {
          "indexed": true,
          "internalType": "address",
          "name": "sender",
          "type": "address"
        }
      ],
      "name": "RoleGranted",
      "type": "event"
    },
    {
      "anonymous": false,
      "inputs": [
        {
          "indexed": true,
          "internalType": "bytes32",
          "name": "role",
          "type": "bytes32"
        },
        {
          "indexed": true,
          "internalType": "address",
          "name": "account",
          "type": "address"
        },
        {
          "indexed": true,
          "internalType": "address",
          "name": "sender",
          "type": "address"
        }
      ],
      "name": "RoleRevoked",
      "type": "event"
    },
    {
      "anonymous": false,
      "inputs": [
        {
          "indexed": true,
          "internalType": "address",
          "name": "src",
          "type": "address"
        },
        {
          "indexed": true,
          "internalType": "address",
          "name": "dst",
          "type": "address"
        },
        {
          "indexed": false,
          "internalType": "uint256",
          "name": "wad",
          "type": "uint256"
        }
      ],
      "name": "Transfer",
      "type": "event"
    },
    {
      "anonymous": false,
      "inputs": [
        {
          "indexed": true,
          "internalType": "address",
          "name": "src",
          "type": "address"
        },
        {
          "indexed": false,
          "internalType": "uint256",
          "name": "wad",
          "type": "uint256"
        }
      ],
      "name": "Withdrawal",
      "type": "event"
    },
    {
      "inputs": [],
      "name": "DEFAULT_ADMIN_ROLE",
      "outputs": [
        {
          "internalType": "bytes32",
          "name": "",
          "type": "bytes32"
        }
      ],
      "stateMutability": "view",
      "type": "function",
      "constant": true
    },
    {
      "inputs": [],
      "name": "MINTER_ROLE",
      "outputs": [
        {
          "internalType": "bytes32",
          "name": "",
          "type": "bytes32"
        }
      ],
      "stateMutability": "view",
      "type": "function",
      "constant": true
    },
    {
      "inputs": [
        {
          "internalType": "address",
          "name": "",
          "type": "address"
        },
        {
          "internalType": "address",
          "name": "",
          "type": "address"
        }
      ],
      "name": "allowance",
      "outputs": [
        {
          "internalType": "uint256",
          "name": "",
          "type": "uint256"
        }
      ],
      "stateMutability": "view",
      "type": "function",
      "constant": true
    },
    {
      "inputs": [
        {
          "internalType": "address",
          "name": "",
          "type": "address"
        }
      ],
      "name": "balanceOf",
      "outputs": [
        {
          "internalType": "uint256",
          "name": "",
          "type": "uint256"
        }
      ],
      "stateMutability": "view",
      "type": "function",
      "constant": true
    },
    {
      "inputs": [],
      "name": "decimals",
      "outputs": [
        {
          "internalType": "uint8",
          "name": "",
          "type": "uint8"
        }
      ],
      "stateMutability": "view",
      "type": "function",
      "constant": true
    },
    {
      "inputs": [
        {
          "internalType": "bytes32",
          "name": "role",
          "type": "bytes32"
        }
      ],
      "name": "getRoleAdmin",
      "outputs": [
        {
          "internalType": "bytes32",
          "name": "",
          "type": "bytes32"
        }
      ],
      "stateMutability": "view",
      "type": "function",
      "constant": true
    },
    {
      "inputs": [
        {
          "internalType": "bytes32",
          "name": "role",
          "type": "bytes32"
        },
        {
          "internalType": "uint256",
          "name": "index",
          "type": "uint256"
        }
      ],
      "name": "getRoleMember",
      "outputs": [
        {
          "internalType": "address",
          "name": "",
          "type": "address"
        }
      ],
      "stateMutability": "view",
      "type": "function",
      "constant": true
    },
    {
      "inputs": [
        {
          "internalType": "bytes32",
          "name": "role",
          "type": "bytes32"
        }
      ],
      "name": "getRoleMemberCount",
      "outputs": [
        {
          "internalType": "uint256",
          "name": "",
          "type": "uint256"
        }
      ],
      "stateMutability": "view",
      "type": "function",
      "constant": true
    },
    {
      "inputs": [
        {
          "internalType": "bytes32",
          "name": "role",
          "type": "bytes32"
        },
        {
          "internalType": "address",
          "name": "account",
          "type": "address"
        }
      ],
      "name": "grantRole",
      "outputs": [],
      "stateMutability": "nonpayable",
      "type": "function"
    },
    {
      "inputs": [
        {
          "internalType": "bytes32",
          "name": "role",
          "type": "bytes32"
        },
        {
          "internalType": "address",
          "name": "account",
          "type": "address"
        }
      ],
      "name": "hasRole",
      "outputs": [
        {
          "internalType": "bool",
          "name": "",
          "type": "bool"
        }
      ],
      "stateMutability": "view",
      "type": "function",
      "constant": true
    },
    {
      "inputs": [],
      "name": "name",
      "outputs": [
        {
          "internalType": "string",
          "name": "",
          "type": "string"
        }
      ],
      "stateMutability": "view",
      "type": "function",
      "constant": true
    },
    {
      "inputs": [
        {
          "internalType": "bytes32",
          "name": "role",
          "type": "bytes32"
        },
        {
          "internalType": "address",
          "name": "account",
          "type": "address"
        }
      ],
      "name": "renounceRole",
      "outputs": [],
      "stateMutability": "nonpayable",
      "type": "function"
    },
    {
      "inputs": [
        {
          "internalType": "bytes32",
          "name": "role",
          "type": "bytes32"
        },
        {
          "internalType": "address",
          "name": "account",
          "type": "address"
        }
      ],
      "name": "revokeRole",
      "outputs": [],
      "stateMutability": "nonpayable",
      "type": "function"
    },
    {
      "inputs": [],
      "name": "symbol",
      "outputs": [
        {
          "internalType": "string",
          "name": "",
          "type": "string"
        }
      ],
      "stateMutability": "view",
      "type": "function",
      "constant": true
    },
    {
      "stateMutability": "payable",
      "type": "receive",
      "payable": true
    },
    {
      "inputs": [],
      "name": "deposit",
      "outputs": [],
      "stateMutability": "payable",
      "type": "function",
      "payable": true
    },
    {
      "inputs": [
        {
          "internalType": "uint256",
          "name": "wad",
          "type": "uint256"
        }
      ],
      "name": "withdraw",
      "outputs": [],
      "stateMutability": "nonpayable",
      "type": "function"
    },
    {
      "inputs": [
        {
          "internalType": "address",
          "name": "destinatary",
          "type": "address"
        },
        {
          "internalType": "uint256",
          "name": "amount",
          "type": "uint256"
        }
      ],
      "name": "mint",
      "outputs": [],
      "stateMutability": "nonpayable",
      "type": "function"
    },
    {
      "inputs": [],
      "name": "totalSupply",
      "outputs": [
        {
          "internalType": "uint256",
          "name": "",
          "type": "uint256"
        }
      ],
      "stateMutability": "view",
      "type": "function",
      "constant": true
    },
    {
      "inputs": [
        {
          "internalType": "address",
          "name": "guy",
          "type": "address"
        },
        {
          "internalType": "uint256",
          "name": "wad",
          "type": "uint256"
        }
      ],
      "name": "approve",
      "outputs": [
        {
          "internalType": "bool",
          "name": "",
          "type": "bool"
        }
      ],
      "stateMutability": "nonpayable",
      "type": "function"
    },
    {
      "inputs": [
        {
          "internalType": "address",
          "name": "dst",
          "type": "address"
        },
        {
          "internalType": "uint256",
          "name": "wad",
          "type": "uint256"
        }
      ],
      "name": "transfer",
      "outputs": [
        {
          "internalType": "bool",
          "name": "",
          "type": "bool"
        }
      ],
      "stateMutability": "nonpayable",
      "type": "function"
    },
    {
      "inputs": [
        {
          "internalType": "address",
          "name": "src",
          "type": "address"
        },
        {
          "internalType": "address",
          "name": "dst",
          "type": "address"
        },
        {
          "internalType": "uint256",
          "name": "wad",
          "type": "uint256"
        }
      ],
      "name": "transferFrom",
      "outputs": [
        {
          "internalType": "bool",
          "name": "",
          "type": "bool"
        }
      ],
      "stateMutability": "nonpayable",
      "type": "function"
    }
  ],
  "bytecode": "0x60c0604052600d60808190526c2bb930b83832b21022ba3432b960991b60a0908152620000309160019190620001e2565b50604080518082019091526004808252630ae8aa8960e31b60209092019182526200005e91600291620001e2565b506003805460ff191660121790553480156200007957600080fd5b506040516200116838038062001168833981810160405260208110156200009f57600080fd5b5051620000ae600082620000e1565b620000da7f9f2df0fed2c77648de5860a4cc508cd0818c85b8b8a1ab4ceeef8d981c8956a682620000e1565b506200027e565b620000ed8282620000f1565b5050565b6000828152602081815260409091206200011691839062000bb962000158821b17901c565b15620000ed5760405133906001600160a01b0383169084907f2f8788117e7eff1d82e926ec794901d17c78024a50270940304540a733656f0d90600090a45050565b6000620001668383620001c1565b620001b757508154600180820184556000848152602080822090930180546001600160a01b0319166001600160a01b03861690811790915585549082528286019093526040902091909155620001bb565b5060005b92915050565b6001600160a01b031660009081526001919091016020526040902054151590565b828054600181600116156101000203166002900490600052602060002090601f016020900481019282601f106200022557805160ff191683800117855562000255565b8280016001018555821562000255579182015b828111156200025557825182559160200191906001019062000238565b506200026392915062000267565b5090565b5b8082111562000263576000815560010162000268565b610eda806200028e6000396000f3fe60806040526004361061012e5760003560e01c806370a08231116100ab578063a9059cbb1161006f578063a9059cbb1461048f578063ca15c873146104c8578063d0e30db0146104f2578063d5391393146104fa578063d547741f1461050f578063dd62ed3e146105485761013d565b806370a08231146103ad5780639010d07c146103e057806391d148541461042c57806395d89b4114610465578063a217fddf1461047a5761013d565b80632e1a7d4d116100f25780632e1a7d4d146102ad5780632f2ff15d146102d7578063313ce5671461031057806336568abe1461033b57806340c10f19146103745761013d565b806306fdde0314610142578063095ea7b3146101cc57806318160ddd1461021957806323b872dd14610240578063248a9ca3146102835761013d565b3661013d5761013b610583565b005b600080fd5b34801561014e57600080fd5b506101576105d2565b6040805160208082528351818301528351919283929083019185019080838360005b83811015610191578181015183820152602001610179565b50505050905090810190601f1680156101be5780820380516001836020036101000a031916815260200191505b509250505060405180910390f35b3480156101d857600080fd5b50610205600480360360408110156101ef57600080fd5b506001600160a01b03813516906020013561065f565b604080519115158252519081900360200190f35b34801561022557600080fd5b5061022e6106c6565b60408051918252519081900360200190f35b34801561024c57600080fd5b506102056004803603606081101561026357600080fd5b506001600160a01b038135811691602081013590911690604001356106ca565b34801561028f57600080fd5b5061022e600480360360208110156102a657600080fd5b503561087e565b3480156102b957600080fd5b5061013b600480360360208110156102d057600080fd5b5035610893565b3480156102e357600080fd5b5061013b600480360360408110156102fa57600080fd5b50803590602001356001600160a01b0316610967565b34801561031c57600080fd5b5061032561099d565b6040805160ff9092168252519081900360200190f35b34801561034757600080fd5b5061013b6004803603604081101561035e57600080fd5b50803590602001356001600160a01b03166109a6565b34801561038057600080fd5b5061013b6004803603604081101561039757600080fd5b506001600160a01b0381351690602001356109c7565b3480156103b957600080fd5b5061022e600480360360208110156103d057600080fd5b50356001600160a01b0316610a86565b3480156103ec57600080fd5b506104106004803603604081101561040357600080fd5b5080359060200135610a98565b604080516001600160a01b039092168252519081900360200190f35b34801561043857600080fd5b506102056004803603604081101561044f57600080fd5b50803590602001356001600160a01b0316610ab7565b34801561047157600080fd5b50610157610acf565b34801561048657600080fd5b5061022e610b27565b34801561049b57600080fd5b50610205600480360360408110156104b257600080fd5b506001600160a01b038135169060200135610b2c565b3480156104d457600080fd5b5061022e600480360360208110156104eb57600080fd5b5035610b39565b61013b610583565b34801561050657600080fd5b5061022e610b50565b34801561051b57600080fd5b5061013b6004803603604081101561053257600080fd5b50803590602001356001600160a01b0316610b74565b34801561055457600080fd5b5061022e6004803603604081101561056b57600080fd5b506001600160a01b0381358116916020013516610b9c565b33600081815260046020908152604091829020805434908101909155825190815291517fe1fffcc4923d04b559f4d29a8bfc6cda04eb5b0d3c460751c2402c5c5cc9109c9281900390910190a2565b60018054604080516020600284861615610100026000190190941693909304601f810184900484028201840190925281815292918301828280156106575780601f1061062c57610100808354040283529160200191610657565b820191906000526020600020905b81548152906001019060200180831161063a57829003601f168201915b505050505081565b3360008181526005602090815260408083206001600160a01b038716808552908352818420869055815186815291519394909390927f8c5be1e5ebec7d5bd14f71427d1e84f3dd0314c0f7b2291e5b200ac8c7c3b925928290030190a35060015b92915050565b4790565b6001600160a01b03831660009081526004602052604081205482111561072e576040805162461bcd60e51b8152602060048201526014602482015273494e53554646494349454e545f42414c414e434560601b604482015290519081900360640190fd5b6001600160a01b038416331480159061076c57506001600160a01b038416600090815260056020908152604080832033845290915290205460001914155b1561080d576001600160a01b03841660009081526005602090815260408083203384529091529020548211156107e2576040805162461bcd60e51b8152602060048201526016602482015275494e53554646494349454e545f414c4c4f57414e434560501b604482015290519081900360640190fd5b6001600160a01b03841660009081526005602090815260408083203384529091529020805483900390555b6001600160a01b03808516600081815260046020908152604080832080548890039055938716808352918490208054870190558351868152935191937fddf252ad1be2c89b69c2b068fc378daa952ba7f163c4a11628f55a4df523b3ef929081900390910190a35060019392505050565b60009081526020819052604090206002015490565b336000908152600460205260409020548111156108ee576040805162461bcd60e51b8152602060048201526014602482015273494e53554646494349454e545f42414c414e434560601b604482015290519081900360640190fd5b33600081815260046020526040808220805485900390555183156108fc0291849190818181858888f1935050505015801561092d573d6000803e3d6000fd5b5060408051828152905133917f7fcf532c15f0a6db0bd6d0e038bea71d30d808c7d98cb3bf7268a95bf5081b65919081900360200190a250565b60008281526020819052604090206002015461098f906109879033610ab7565b6101a6610c1c565b6109998282610c2a565b5050565b60035460ff1681565b6109bd6001600160a01b03821633146101a8610c1c565b6109998282610c83565b6109f17f9f2df0fed2c77648de5860a4cc508cd0818c85b8b8a1ab4ceeef8d981c8956a633610ab7565b610a2f576040805162461bcd60e51b815260206004820152600a6024820152692727aa2fa6a4a72a22a960b11b604482015290519081900360640190fd5b6001600160a01b038216600081815260046020908152604091829020805485019055815184815291517fe1fffcc4923d04b559f4d29a8bfc6cda04eb5b0d3c460751c2402c5c5cc9109c9281900390910190a25050565b60046020526000908152604090205481565b6000828152602081905260408120610ab09083610cdc565b9392505050565b6000828152602081905260408120610ab09083610cf8565b6002805460408051602060018416156101000260001901909316849004601f810184900484028201840190925281815292918301828280156106575780601f1061062c57610100808354040283529160200191610657565b600081565b6000610ab03384846106ca565b60008181526020819052604081206106c090610d19565b7f9f2df0fed2c77648de5860a4cc508cd0818c85b8b8a1ab4ceeef8d981c8956a681565b6000828152602081905260409020600201546109bd90610b949033610ab7565b6101a7610c1c565b600560209081526000928352604080842090915290825290205481565b6000610bc58383610cf8565b610c1457508154600180820184556000848152602080822090930180546001600160a01b0319166001600160a01b038616908117909155855490825282860190935260409020919091556106c0565b5060006106c0565b816109995761099981610d1d565b6000828152602081905260409020610c429082610bb9565b156109995760405133906001600160a01b0383169084907f2f8788117e7eff1d82e926ec794901d17c78024a50270940304540a733656f0d90600090a45050565b6000828152602081905260409020610c9b9082610d70565b156109995760405133906001600160a01b0383169084907ff6391f5c32d9c69d2a47ea670b442974b53935d1edc7fd64eb21e047a839171b90600090a45050565b8154600090610cee9083106064610c1c565b610ab08383610e77565b6001600160a01b031660009081526001919091016020526040902054151590565b5490565b62461bcd60e51b6000908152602060045260076024526642414c23000030600a808404818106603090810160081b95839006959095019082900491820690940160101b939093010160c81b604452606490fd5b6001600160a01b03811660009081526001830160205260408120548015610e6d5783546000198083019190810190600090879083908110610dad57fe5b60009182526020909120015487546001600160a01b0390911691508190889085908110610dd657fe5b600091825260208083209190910180546001600160a01b0319166001600160a01b03948516179055918316815260018981019092526040902090840190558654879080610e1f57fe5b60008281526020808220830160001990810180546001600160a01b03191690559092019092556001600160a01b03881682526001898101909152604082209190915594506106c09350505050565b60009150506106c0565b6000826000018281548110610e8857fe5b6000918252602090912001546001600160a01b0316939250505056fea2646970667358221220e8eb85493a4e0388a14a217e60cbe740614a8ef7888b17d11457deb94823785264736f6c63430007010033",
  "immutableReferences": {},
  "source": "// SPDX-License-Identifier: GPL-3.0-or-later\n// Copyright (C) 2015, 2016, 2017 Dapphub\n\n// This program is free software: you can redistribute it and/or modify\n// it under the terms of the GNU General Public License as published by\n// the Free Software Foundation, either version 3 of the License, or\n// (at your option) any later version.\n\n// This program is distributed in the hope that it will be useful,\n// but WITHOUT ANY WARRANTY; without even the implied warranty of\n// MERCHANTABILITY or FITNESS FOR A PARTICULAR PURPOSE.  See the\n// GNU General Public License for more details.\n\n// You should have received a copy of the GNU General Public License\n// along with this program.  If not, see <http://www.gnu.org/licenses/>.\n\npragma solidity ^0.7.0;\n\nimport \"@balancer-labs/v2-solidity-utils/contracts/openzeppelin/AccessControl.sol\";\n\ncontract TestWETH is AccessControl {\n    bytes32 public constant MINTER_ROLE = keccak256(\"MINTER_ROLE\");\n\n    string public name = \"Wrapped Ether\";\n    string public symbol = \"WETH\";\n    uint8 public decimals = 18;\n\n    event Approval(address indexed src, address indexed guy, uint256 wad);\n    event Transfer(address indexed src, address indexed dst, uint256 wad);\n    event Deposit(address indexed dst, uint256 wad);\n    event Withdrawal(address indexed src, uint256 wad);\n\n    mapping(address => uint256) public balanceOf;\n    mapping(address => mapping(address => uint256)) public allowance;\n\n    constructor(address _admin) {\n        _setupRole(DEFAULT_ADMIN_ROLE, _admin);\n        _setupRole(MINTER_ROLE, _admin);\n    }\n\n    receive() external payable {\n        deposit();\n    }\n\n    function deposit() public payable {\n        balanceOf[msg.sender] += msg.value;\n        emit Deposit(msg.sender, msg.value);\n    }\n\n    function withdraw(uint256 wad) public {\n        require(balanceOf[msg.sender] >= wad, \"INSUFFICIENT_BALANCE\");\n        balanceOf[msg.sender] -= wad;\n        msg.sender.transfer(wad);\n        emit Withdrawal(msg.sender, wad);\n    }\n\n    // For testing purposes - this creates WETH that cannot be redeemed for ETH via 'withdraw'\n    function mint(address destinatary, uint256 amount) external {\n        require(hasRole(MINTER_ROLE, msg.sender), \"NOT_MINTER\");\n        balanceOf[destinatary] += amount;\n        emit Deposit(destinatary, amount);\n    }\n\n    function totalSupply() public view returns (uint256) {\n        return address(this).balance;\n    }\n\n    function approve(address guy, uint256 wad) public returns (bool) {\n        allowance[msg.sender][guy] = wad;\n        emit Approval(msg.sender, guy, wad);\n        return true;\n    }\n\n    function transfer(address dst, uint256 wad) public returns (bool) {\n        return transferFrom(msg.sender, dst, wad);\n    }\n\n    function transferFrom(\n        address src,\n        address dst,\n        uint256 wad\n    ) public returns (bool) {\n        require(balanceOf[src] >= wad, \"INSUFFICIENT_BALANCE\");\n\n        if (src != msg.sender && allowance[src][msg.sender] != uint256(-1)) {\n            require(allowance[src][msg.sender] >= wad, \"INSUFFICIENT_ALLOWANCE\");\n            allowance[src][msg.sender] -= wad;\n        }\n\n        balanceOf[src] -= wad;\n        balanceOf[dst] += wad;\n\n        emit Transfer(src, dst, wad);\n\n        return true;\n    }\n}\n",
  "sourcePath": "/home/tatsu/Station/CrossAssetPaymentPool/contracts/test/TestWETH.sol",
  "compiler": {
    "name": "solc",
    "version": "0.7.1+commit.f4a555be.Emscripten.clang"
  },
  "schemaVersion": "3.4.2",
  "updatedAt": "2021-08-19T23:37:49.359Z",
  "networkType": "ethereum",
  "devdoc": {
    "kind": "dev",
    "methods": {
      "getRoleAdmin(bytes32)": {
        "details": "Returns the admin role that controls `role`. See {grantRole} and {revokeRole}. To change a role's admin, use {_setRoleAdmin}."
      },
      "getRoleMember(bytes32,uint256)": {
        "details": "Returns one of the accounts that have `role`. `index` must be a value between 0 and {getRoleMemberCount}, non-inclusive. Role bearers are not sorted in any particular way, and their ordering may change at any point. WARNING: When using {getRoleMember} and {getRoleMemberCount}, make sure you perform all queries on the same block. See the following https://forum.openzeppelin.com/t/iterating-over-elements-on-enumerableset-in-openzeppelin-contracts/2296[forum post] for more information."
      },
      "getRoleMemberCount(bytes32)": {
        "details": "Returns the number of accounts that have `role`. Can be used together with {getRoleMember} to enumerate all bearers of a role."
      },
      "grantRole(bytes32,address)": {
        "details": "Grants `role` to `account`. If `account` had not been already granted `role`, emits a {RoleGranted} event. Requirements: - the caller must have ``role``'s admin role."
      },
      "hasRole(bytes32,address)": {
        "details": "Returns `true` if `account` has been granted `role`."
      },
      "renounceRole(bytes32,address)": {
        "details": "Revokes `role` from the calling account. Roles are often managed via {grantRole} and {revokeRole}: this function's purpose is to provide a mechanism for accounts to lose their privileges if they are compromised (such as when a trusted device is misplaced). If the calling account had been granted `role`, emits a {RoleRevoked} event. Requirements: - the caller must be `account`."
      },
      "revokeRole(bytes32,address)": {
        "details": "Revokes `role` from `account`. If `account` had already been granted `role`, emits a {RoleRevoked} event. Requirements: - the caller must have ``role``'s admin role."
      }
    },
    "version": 1
  },
  "userdoc": {
    "kind": "user",
    "methods": {},
    "version": 1
  }
}